{
	"contracts/nft-market.sol": {
		"Market": {
			"abi": [
				{
					"inputs": [
						{
							"internalType": "contract IERC20",
							"name": "_erc20",
							"type": "address"
						},
						{
							"internalType": "contract IERC721",
							"name": "_erc721",
							"type": "address"
						}
					],
					"stateMutability": "nonpayable",
					"type": "constructor"
				},
				{
					"anonymous": false,
					"inputs": [
						{
							"indexed": false,
							"internalType": "address",
							"name": "seller",
							"type": "address"
						},
						{
							"indexed": false,
							"internalType": "uint256",
							"name": "tokenId",
							"type": "uint256"
						}
					],
					"name": "CancelOrder",
					"type": "event"
				},
				{
					"anonymous": false,
					"inputs": [
						{
							"indexed": false,
							"internalType": "address",
							"name": "seller",
							"type": "address"
						},
						{
							"indexed": false,
							"internalType": "uint256",
							"name": "tokenId",
							"type": "uint256"
						},
						{
							"indexed": false,
							"internalType": "uint256",
							"name": "previousPrice",
							"type": "uint256"
						},
						{
							"indexed": false,
							"internalType": "uint256",
							"name": "price",
							"type": "uint256"
						}
					],
					"name": "ChangePrice",
					"type": "event"
				},
				{
					"anonymous": false,
					"inputs": [
						{
							"indexed": false,
							"internalType": "address",
							"name": "buyer",
							"type": "address"
						},
						{
							"indexed": false,
							"internalType": "address",
							"name": "seller",
							"type": "address"
						},
						{
							"indexed": false,
							"internalType": "uint256",
							"name": "tokenId",
							"type": "uint256"
						},
						{
							"indexed": false,
							"internalType": "uint256",
							"name": "price",
							"type": "uint256"
						}
					],
					"name": "Deal",
					"type": "event"
				},
				{
					"anonymous": false,
					"inputs": [
						{
							"indexed": false,
							"internalType": "address",
							"name": "seller",
							"type": "address"
						},
						{
							"indexed": false,
							"internalType": "uint256",
							"name": "tokenId",
							"type": "uint256"
						},
						{
							"indexed": false,
							"internalType": "uint256",
							"name": "price",
							"type": "uint256"
						}
					],
					"name": "NewOrder",
					"type": "event"
				},
				{
					"inputs": [
						{
							"internalType": "uint256",
							"name": "_tokenId",
							"type": "uint256"
						}
					],
					"name": "buy",
					"outputs": [],
					"stateMutability": "nonpayable",
					"type": "function"
				},
				{
					"inputs": [
						{
							"internalType": "uint256",
							"name": "_tokenId",
							"type": "uint256"
						}
					],
					"name": "cancelOrder",
					"outputs": [],
					"stateMutability": "nonpayable",
					"type": "function"
				},
				{
					"inputs": [
						{
							"internalType": "uint256",
							"name": "_tokenId",
							"type": "uint256"
						},
						{
							"internalType": "uint256",
							"name": "_price",
							"type": "uint256"
						}
					],
					"name": "changePrice",
					"outputs": [],
					"stateMutability": "nonpayable",
					"type": "function"
				},
				{
					"inputs": [],
					"name": "erc20",
					"outputs": [
						{
							"internalType": "contract IERC20",
							"name": "",
							"type": "address"
						}
					],
					"stateMutability": "view",
					"type": "function"
				},
				{
					"inputs": [],
					"name": "erc721",
					"outputs": [
						{
							"internalType": "contract IERC721",
							"name": "",
							"type": "address"
						}
					],
					"stateMutability": "view",
					"type": "function"
				},
				{
					"inputs": [],
					"name": "getAllNFTs",
					"outputs": [
						{
							"components": [
								{
									"internalType": "address",
									"name": "seller",
									"type": "address"
								},
								{
									"internalType": "uint256",
									"name": "tokenId",
									"type": "uint256"
								},
								{
									"internalType": "uint256",
									"name": "price",
									"type": "uint256"
								}
							],
							"internalType": "struct Market.Order[]",
							"name": "",
							"type": "tuple[]"
						}
					],
					"stateMutability": "view",
					"type": "function"
				},
				{
					"inputs": [],
					"name": "getMyNFTs",
					"outputs": [
						{
							"components": [
								{
									"internalType": "address",
									"name": "seller",
									"type": "address"
								},
								{
									"internalType": "uint256",
									"name": "tokenId",
									"type": "uint256"
								},
								{
									"internalType": "uint256",
									"name": "price",
									"type": "uint256"
								}
							],
							"internalType": "struct Market.Order[]",
							"name": "",
							"type": "tuple[]"
						}
					],
					"stateMutability": "view",
					"type": "function"
				},
				{
					"inputs": [],
					"name": "getOrderLength",
					"outputs": [
						{
							"internalType": "uint256",
							"name": "",
							"type": "uint256"
						}
					],
					"stateMutability": "view",
					"type": "function"
				},
				{
					"inputs": [
						{
							"internalType": "uint256",
							"name": "",
							"type": "uint256"
						}
					],
					"name": "idToOrderIndex",
					"outputs": [
						{
							"internalType": "uint256",
							"name": "",
							"type": "uint256"
						}
					],
					"stateMutability": "view",
					"type": "function"
				},
				{
					"inputs": [
						{
							"internalType": "uint256",
							"name": "_tokenId",
							"type": "uint256"
						}
					],
					"name": "isListed",
					"outputs": [
						{
							"internalType": "bool",
							"name": "",
							"type": "bool"
						}
					],
					"stateMutability": "view",
					"type": "function"
				},
				{
					"inputs": [
						{
							"internalType": "address",
							"name": "_operator",
							"type": "address"
						},
						{
							"internalType": "address",
							"name": "_seller",
							"type": "address"
						},
						{
							"internalType": "uint256",
							"name": "_tokenId",
							"type": "uint256"
						},
						{
							"internalType": "bytes",
							"name": "_data",
							"type": "bytes"
						}
					],
					"name": "onERC721Received",
					"outputs": [
						{
							"internalType": "bytes4",
							"name": "",
							"type": "bytes4"
						}
					],
					"stateMutability": "nonpayable",
					"type": "function"
				},
				{
					"inputs": [
						{
							"internalType": "uint256",
							"name": "",
							"type": "uint256"
						}
					],
					"name": "orderOfId",
					"outputs": [
						{
							"internalType": "address",
							"name": "seller",
							"type": "address"
						},
						{
							"internalType": "uint256",
							"name": "tokenId",
							"type": "uint256"
						},
						{
							"internalType": "uint256",
							"name": "price",
							"type": "uint256"
						}
					],
					"stateMutability": "view",
					"type": "function"
				},
				{
					"inputs": [
						{
							"internalType": "uint256",
							"name": "",
							"type": "uint256"
						}
					],
					"name": "orders",
					"outputs": [
						{
							"internalType": "address",
							"name": "seller",
							"type": "address"
						},
						{
							"internalType": "uint256",
							"name": "tokenId",
							"type": "uint256"
						},
						{
							"internalType": "uint256",
							"name": "price",
							"type": "uint256"
						}
					],
					"stateMutability": "view",
					"type": "function"
				},
				{
					"inputs": [
						{
							"internalType": "bytes",
							"name": "_bytes",
							"type": "bytes"
						},
						{
							"internalType": "uint256",
							"name": "_start",
							"type": "uint256"
						}
					],
					"name": "toUint256",
					"outputs": [
						{
							"internalType": "uint256",
							"name": "",
							"type": "uint256"
						}
					],
					"stateMutability": "pure",
					"type": "function"
				}
			],
			"devdoc": {
				"kind": "dev",
				"methods": {
					"onERC721Received(address,address,uint256,bytes)": {
						"details": "List a good using a ERC721 receiver hook",
						"params": {
							"_data": "contains the pricing data as the first 32 bytes",
							"_operator": "the caller of this function",
							"_seller": "the good seller",
							"_tokenId": "the good id to list"
						}
					}
				},
				"title": "NFTMarket contract that allows atomic swaps of ERC20 and ERC721",
				"version": 1
			},
			"evm": {
				"assembly": "    /* \"contracts/nft-market.sol\":320:6017  contract Market is IERC721Receiver {... */\n  mstore(0x40, 0x80)\n    /* \"contracts/nft-market.sol\":1069:1440  constructor(IERC20 _erc20, IERC721 _erc721) {... */\n  callvalue\n  dup1\n  iszero\n  tag_1\n  jumpi\n  0x00\n  dup1\n  revert\ntag_1:\n  pop\n  mload(0x40)\n  sub(codesize, bytecodeSize)\n  dup1\n  bytecodeSize\n  dup4\n  codecopy\n  dup2\n  add\n  0x40\n  dup2\n  swap1\n  mstore\n  tag_2\n  swap2\n  tag_3\n  jump\t// in\ntag_2:\n  sub(shl(0xa0, 0x01), 0x01)\n    /* \"contracts/nft-market.sol\":1144:1173  address(_erc20) != address(0) */\n  dup3\n  and\n    /* \"contracts/nft-market.sol\":1123:1247  require(... */\n  tag_6\n  jumpi\n  mload(0x40)\n  shl(0xe5, 0x461bcd)\n  dup2\n  mstore\n    /* \"#utility.yul\":794:796   */\n  0x20\n    /* \"contracts/nft-market.sol\":1123:1247  require(... */\n  0x04\n  dup3\n  add\n    /* \"#utility.yul\":776:797   */\n  mstore\n    /* \"#utility.yul\":833:835   */\n  0x30\n    /* \"#utility.yul\":813:831   */\n  0x24\n  dup3\n  add\n    /* \"#utility.yul\":806:836   */\n  mstore\n    /* \"#utility.yul\":872:906   */\n  0x4d61726b65743a2049455243323020636f6e7472616374206164647265737320\n    /* \"#utility.yul\":852:870   */\n  0x44\n  dup3\n  add\n    /* \"#utility.yul\":845:907   */\n  mstore\n  shl(0x82, 0x1b5d5cdd081899481b9bdb8b5b9d5b1b)\n    /* \"#utility.yul\":923:941   */\n  0x64\n  dup3\n  add\n    /* \"#utility.yul\":916:962   */\n  mstore\n    /* \"#utility.yul\":979:998   */\n  0x84\n  add\n    /* \"contracts/nft-market.sol\":1123:1247  require(... */\ntag_7:\n  mload(0x40)\n  dup1\n  swap2\n  sub\n  swap1\n  revert\ntag_6:\n  sub(shl(0xa0, 0x01), 0x01)\n    /* \"contracts/nft-market.sol\":1278:1308  address(_erc721) != address(0) */\n  dup2\n  and\n    /* \"contracts/nft-market.sol\":1257:1383  require(... */\n  tag_9\n  jumpi\n  mload(0x40)\n  shl(0xe5, 0x461bcd)\n  dup2\n  mstore\n    /* \"#utility.yul\":1211:1213   */\n  0x20\n    /* \"contracts/nft-market.sol\":1257:1383  require(... */\n  0x04\n  dup3\n  add\n    /* \"#utility.yul\":1193:1214   */\n  mstore\n    /* \"#utility.yul\":1250:1252   */\n  0x31\n    /* \"#utility.yul\":1230:1248   */\n  0x24\n  dup3\n  add\n    /* \"#utility.yul\":1223:1253   */\n  mstore\n    /* \"#utility.yul\":1289:1323   */\n  0x4d61726b65743a204945524337323120636f6e74726163742061646472657373\n    /* \"#utility.yul\":1269:1287   */\n  0x44\n  dup3\n  add\n    /* \"#utility.yul\":1262:1324   */\n  mstore\n  shl(0x7a, 0x081b5d5cdd081899481b9bdb8b5b9d5b1b)\n    /* \"#utility.yul\":1340:1358   */\n  0x64\n  dup3\n  add\n    /* \"#utility.yul\":1333:1380   */\n  mstore\n    /* \"#utility.yul\":1397:1416   */\n  0x84\n  add\n    /* \"contracts/nft-market.sol\":1257:1383  require(... */\n  tag_7\n    /* \"#utility.yul\":1009:1422   */\n  jump\n    /* \"contracts/nft-market.sol\":1257:1383  require(... */\ntag_9:\n    /* \"contracts/nft-market.sol\":1393:1398  erc20 */\n  0x00\n    /* \"contracts/nft-market.sol\":1393:1407  erc20 = _erc20 */\n  dup1\n  sload\n  sub(shl(0xa0, 0x01), 0x01)\n  swap4\n  dup5\n  and\n  not(sub(shl(0xa0, 0x01), 0x01))\n  swap2\n  dup3\n  and\n  or\n  swap1\n  swap2\n  sstore\n  0x01\n    /* \"contracts/nft-market.sol\":1417:1433  erc721 = _erc721 */\n  dup1\n  sload\n  swap3\n  swap1\n  swap4\n  and\n  swap2\n  and\n  or\n  swap1\n  sstore\n    /* \"contracts/nft-market.sol\":320:6017  contract Market is IERC721Receiver {... */\n  jump(tag_14)\n    /* \"#utility.yul\":14:153   */\ntag_13:\n  sub(shl(0xa0, 0x01), 0x01)\n    /* \"#utility.yul\":97:128   */\n  dup2\n  and\n    /* \"#utility.yul\":87:129   */\n  dup2\n  eq\n    /* \"#utility.yul\":77:147   */\n  tag_16\n  jumpi\n    /* \"#utility.yul\":143:144   */\n  0x00\n    /* \"#utility.yul\":140:141   */\n  dup1\n    /* \"#utility.yul\":133:145   */\n  revert\n    /* \"#utility.yul\":77:147   */\ntag_16:\n    /* \"#utility.yul\":14:153   */\n  pop\n  jump\t// out\n    /* \"#utility.yul\":158:587   */\ntag_3:\n    /* \"#utility.yul\":265:271   */\n  0x00\n    /* \"#utility.yul\":273:279   */\n  dup1\n    /* \"#utility.yul\":326:328   */\n  0x40\n    /* \"#utility.yul\":314:323   */\n  dup4\n    /* \"#utility.yul\":305:312   */\n  dup6\n    /* \"#utility.yul\":301:324   */\n  sub\n    /* \"#utility.yul\":297:329   */\n  slt\n    /* \"#utility.yul\":294:346   */\n  iszero\n  tag_18\n  jumpi\n    /* \"#utility.yul\":342:343   */\n  0x00\n    /* \"#utility.yul\":339:340   */\n  dup1\n    /* \"#utility.yul\":332:344   */\n  revert\n    /* \"#utility.yul\":294:346   */\ntag_18:\n    /* \"#utility.yul\":374:383   */\n  dup3\n    /* \"#utility.yul\":368:384   */\n  mload\n    /* \"#utility.yul\":393:432   */\n  tag_19\n    /* \"#utility.yul\":426:431   */\n  dup2\n    /* \"#utility.yul\":393:432   */\n  tag_13\n  jump\t// in\ntag_19:\n    /* \"#utility.yul\":501:503   */\n  0x20\n    /* \"#utility.yul\":486:504   */\n  dup5\n  add\n    /* \"#utility.yul\":480:505   */\n  mload\n    /* \"#utility.yul\":451:456   */\n  swap1\n  swap3\n  pop\n    /* \"#utility.yul\":514:555   */\n  tag_20\n    /* \"#utility.yul\":480:505   */\n  dup2\n    /* \"#utility.yul\":514:555   */\n  tag_13\n  jump\t// in\ntag_20:\n    /* \"#utility.yul\":574:581   */\n  dup1\n    /* \"#utility.yul\":564:581   */\n  swap2\n  pop\n  pop\n    /* \"#utility.yul\":158:587   */\n  swap3\n  pop\n  swap3\n  swap1\n  pop\n  jump\t// out\n    /* \"#utility.yul\":1009:1422   */\ntag_14:\n    /* \"contracts/nft-market.sol\":320:6017  contract Market is IERC721Receiver {... */\n  dataSize(sub_0)\n  dup1\n  dataOffset(sub_0)\n  0x00\n  codecopy\n  0x00\n  return\nstop\n\nsub_0: assembly {\n        /* \"contracts/nft-market.sol\":320:6017  contract Market is IERC721Receiver {... */\n      mstore(0x40, 0x80)\n      callvalue\n      dup1\n      iszero\n      tag_1\n      jumpi\n      0x00\n      dup1\n      revert\n    tag_1:\n      pop\n      jumpi(tag_2, lt(calldatasize, 0x04))\n      shr(0xe0, calldataload(0x00))\n      dup1\n      0xb3de019c\n      gt\n      tag_17\n      jumpi\n      dup1\n      0xd96a094a\n      gt\n      tag_18\n      jumpi\n      dup1\n      0xd96a094a\n      eq\n      tag_13\n      jumpi\n      dup1\n      0xda694df0\n      eq\n      tag_14\n      jumpi\n      dup1\n      0xe0391b09\n      eq\n      tag_15\n      jumpi\n      dup1\n      0xfcce4883\n      eq\n      tag_16\n      jumpi\n      0x00\n      dup1\n      revert\n    tag_18:\n      dup1\n      0xb3de019c\n      eq\n      tag_10\n      jumpi\n      dup1\n      0xb5cdf924\n      eq\n      tag_11\n      jumpi\n      dup1\n      0xbca6ce64\n      eq\n      tag_12\n      jumpi\n      0x00\n      dup1\n      revert\n    tag_17:\n      dup1\n      0x629cb2e4\n      gt\n      tag_19\n      jumpi\n      dup1\n      0x629cb2e4\n      eq\n      tag_6\n      jumpi\n      dup1\n      0x785e9e86\n      eq\n      tag_7\n      jumpi\n      dup1\n      0x9d4971b7\n      eq\n      tag_8\n      jumpi\n      dup1\n      0xa85c38ef\n      eq\n      tag_9\n      jumpi\n      0x00\n      dup1\n      revert\n    tag_19:\n      dup1\n      0x150b7a02\n      eq\n      tag_3\n      jumpi\n      dup1\n      0x394a9077\n      eq\n      tag_4\n      jumpi\n      dup1\n      0x514fcac7\n      eq\n      tag_5\n      jumpi\n    tag_2:\n      0x00\n      dup1\n      revert\n        /* \"contracts/nft-market.sol\":4129:4518  function onERC721Received(... */\n    tag_3:\n      tag_20\n      tag_21\n      calldatasize\n      0x04\n      tag_22\n      jump\t// in\n    tag_21:\n      tag_23\n      jump\t// in\n    tag_20:\n      mload(0x40)\n      not(sub(shl(0xe0, 0x01), 0x01))\n        /* \"#utility.yul\":1167:1200   */\n      swap1\n      swap2\n      and\n        /* \"#utility.yul\":1149:1201   */\n      dup2\n      mstore\n        /* \"#utility.yul\":1137:1139   */\n      0x20\n        /* \"#utility.yul\":1122:1140   */\n      add\n        /* \"contracts/nft-market.sol\":4129:4518  function onERC721Received(... */\n    tag_24:\n      mload(0x40)\n      dup1\n      swap2\n      sub\n      swap1\n      return\n        /* \"contracts/nft-market.sol\":581:623  mapping(uint256 => Order) public orderOfId */\n    tag_4:\n      tag_26\n      tag_27\n      calldatasize\n      0x04\n      tag_28\n      jump\t// in\n    tag_27:\n      0x02\n      0x20\n      dup2\n      swap1\n      mstore\n      0x00\n      swap2\n      dup3\n      mstore\n      0x40\n      swap1\n      swap2\n      keccak256\n      dup1\n      sload\n      0x01\n      dup3\n      add\n      sload\n      swap2\n      swap1\n      swap3\n      add\n      sload\n      sub(shl(0xa0, 0x01), 0x01)\n      swap1\n      swap3\n      and\n      swap2\n      dup4\n      jump\n    tag_26:\n      0x40\n      dup1\n      mload\n      sub(shl(0xa0, 0x01), 0x01)\n        /* \"#utility.yul\":1617:1649   */\n      swap1\n      swap5\n      and\n        /* \"#utility.yul\":1599:1650   */\n      dup5\n      mstore\n        /* \"#utility.yul\":1681:1683   */\n      0x20\n        /* \"#utility.yul\":1666:1684   */\n      dup5\n      add\n        /* \"#utility.yul\":1659:1693   */\n      swap3\n      swap1\n      swap3\n      mstore\n        /* \"#utility.yul\":1709:1727   */\n      swap1\n      dup3\n      add\n        /* \"#utility.yul\":1702:1736   */\n      mstore\n        /* \"#utility.yul\":1587:1589   */\n      0x60\n        /* \"#utility.yul\":1572:1590   */\n      add\n        /* \"contracts/nft-market.sol\":581:623  mapping(uint256 => Order) public orderOfId */\n      tag_24\n        /* \"#utility.yul\":1397:1742   */\n      jump\n        /* \"contracts/nft-market.sol\":1996:2392  function cancelOrder(uint256 _tokenId) external {... */\n    tag_5:\n      tag_32\n      tag_33\n      calldatasize\n      0x04\n      tag_28\n      jump\t// in\n    tag_33:\n      tag_34\n      jump\t// in\n    tag_32:\n      stop\n        /* \"contracts/nft-market.sol\":3031:3621  function getMyNFTs() public view returns (Order[] memory) {... */\n    tag_6:\n      tag_35\n      tag_36\n      jump\t// in\n    tag_35:\n      mload(0x40)\n      tag_24\n      swap2\n      swap1\n      tag_38\n      jump\t// in\n        /* \"contracts/nft-market.sol\":361:380  IERC20 public erc20 */\n    tag_7:\n      sload(0x00)\n      tag_39\n      swap1\n      sub(shl(0xa0, 0x01), 0x01)\n      and\n      dup2\n      jump\n    tag_39:\n      mload(0x40)\n      sub(shl(0xa0, 0x01), 0x01)\n        /* \"#utility.yul\":2792:2824   */\n      swap1\n      swap2\n      and\n        /* \"#utility.yul\":2774:2825   */\n      dup2\n      mstore\n        /* \"#utility.yul\":2762:2764   */\n      0x20\n        /* \"#utility.yul\":2747:2765   */\n      add\n        /* \"contracts/nft-market.sol\":361:380  IERC20 public erc20 */\n      tag_24\n        /* \"#utility.yul\":2615:2831   */\n      jump\n        /* \"contracts/nft-market.sol\":3760:3853  function getOrderLength() public view returns (uint256) {... */\n    tag_8:\n        /* \"contracts/nft-market.sol\":3833:3839  orders */\n      0x03\n        /* \"contracts/nft-market.sol\":3833:3846  orders.length */\n      sload\n        /* \"contracts/nft-market.sol\":3760:3853  function getOrderLength() public view returns (uint256) {... */\n    tag_43:\n      mload(0x40)\n        /* \"#utility.yul\":2982:3007   */\n      swap1\n      dup2\n      mstore\n        /* \"#utility.yul\":2970:2972   */\n      0x20\n        /* \"#utility.yul\":2955:2973   */\n      add\n        /* \"contracts/nft-market.sol\":3760:3853  function getOrderLength() public view returns (uint256) {... */\n      tag_24\n        /* \"#utility.yul\":2836:3013   */\n      jump\n        /* \"contracts/nft-market.sol\":650:671  Order[] public orders */\n    tag_9:\n      tag_26\n      tag_48\n      calldatasize\n      0x04\n      tag_28\n      jump\t// in\n    tag_48:\n      tag_49\n      jump\t// in\n        /* \"contracts/nft-market.sol\":2398:2930  function changePrice(uint256 _tokenId, uint256 _price) external {... */\n    tag_10:\n      tag_32\n      tag_52\n      calldatasize\n      0x04\n      tag_53\n      jump\t// in\n    tag_52:\n      tag_54\n      jump\t// in\n        /* \"contracts/nft-market.sol\":4642:5051  function toUint256(... */\n    tag_11:\n      tag_43\n      tag_56\n      calldatasize\n      0x04\n      tag_57\n      jump\t// in\n    tag_56:\n      tag_58\n      jump\t// in\n        /* \"contracts/nft-market.sol\":386:407  IERC721 public erc721 */\n    tag_12:\n      sload(0x01)\n      tag_39\n      swap1\n      sub(shl(0xa0, 0x01), 0x01)\n      and\n      dup2\n      jump\n        /* \"contracts/nft-market.sol\":1446:1990  function buy(uint256 _tokenId) external {... */\n    tag_13:\n      tag_32\n      tag_65\n      calldatasize\n      0x04\n      tag_28\n      jump\t// in\n    tag_65:\n      tag_66\n      jump\t// in\n        /* \"contracts/nft-market.sol\":677:726  mapping(uint256 => uint256) public idToOrderIndex */\n    tag_14:\n      tag_43\n      tag_68\n      calldatasize\n      0x04\n      tag_28\n      jump\t// in\n    tag_68:\n      mstore(0x20, 0x04)\n      0x00\n      swap1\n      dup2\n      mstore\n      0x40\n      swap1\n      keccak256\n      sload\n      dup2\n      jump\n        /* \"contracts/nft-market.sol\":2936:3025  function getAllNFTs() public view returns (Order[] memory) {... */\n    tag_15:\n      tag_35\n      tag_72\n      jump\t// in\n        /* \"contracts/nft-market.sol\":3627:3754  function isListed(uint256 _tokenId) public view returns (bool) {... */\n    tag_16:\n      tag_74\n      tag_75\n      calldatasize\n      0x04\n      tag_28\n      jump\t// in\n    tag_75:\n        /* \"contracts/nft-market.sol\":3684:3688  bool */\n      0x00\n        /* \"contracts/nft-market.sol\":3707:3726  orderOfId[_tokenId] */\n      swap1\n      dup2\n      mstore\n        /* \"contracts/nft-market.sol\":3707:3716  orderOfId */\n      0x02\n        /* \"contracts/nft-market.sol\":3707:3726  orderOfId[_tokenId] */\n      0x20\n      mstore\n      0x40\n      swap1\n      keccak256\n        /* \"contracts/nft-market.sol\":3707:3733  orderOfId[_tokenId].seller */\n      sload\n      sub(shl(0xa0, 0x01), 0x01)\n      and\n        /* \"contracts/nft-market.sol\":3707:3747  orderOfId[_tokenId].seller != address(0) */\n      iszero\n      iszero\n      swap1\n        /* \"contracts/nft-market.sol\":3627:3754  function isListed(uint256 _tokenId) public view returns (bool) {... */\n      jump\n    tag_74:\n      mload(0x40)\n        /* \"#utility.yul\":4795:4809   */\n      swap1\n      iszero\n        /* \"#utility.yul\":4788:4810   */\n      iszero\n        /* \"#utility.yul\":4770:4811   */\n      dup2\n      mstore\n        /* \"#utility.yul\":4758:4760   */\n      0x20\n        /* \"#utility.yul\":4743:4761   */\n      add\n        /* \"contracts/nft-market.sol\":3627:3754  function isListed(uint256 _tokenId) public view returns (bool) {... */\n      tag_24\n        /* \"#utility.yul\":4630:4817   */\n      jump\n        /* \"contracts/nft-market.sol\":4129:4518  function onERC721Received(... */\n    tag_23:\n        /* \"contracts/nft-market.sol\":4294:4300  bytes4 */\n      0x00\n        /* \"contracts/nft-market.sol\":4333:4340  _seller */\n      dup5\n      sub(shl(0xa0, 0x01), 0x01)\n        /* \"contracts/nft-market.sol\":4320:4340  _operator == _seller */\n      and\n        /* \"contracts/nft-market.sol\":4320:4329  _operator */\n      dup7\n      sub(shl(0xa0, 0x01), 0x01)\n        /* \"contracts/nft-market.sol\":4320:4340  _operator == _seller */\n      and\n      eq\n        /* \"contracts/nft-market.sol\":4312:4376  require(_operator == _seller, \"Market: Seller must be operator\") */\n      tag_80\n      jumpi\n      mload(0x40)\n      shl(0xe5, 0x461bcd)\n      dup2\n      mstore\n        /* \"#utility.yul\":5024:5026   */\n      0x20\n        /* \"contracts/nft-market.sol\":4312:4376  require(_operator == _seller, \"Market: Seller must be operator\") */\n      0x04\n      dup3\n      add\n        /* \"#utility.yul\":5006:5027   */\n      mstore\n        /* \"#utility.yul\":5063:5065   */\n      0x1f\n        /* \"#utility.yul\":5043:5061   */\n      0x24\n      dup3\n      add\n        /* \"#utility.yul\":5036:5066   */\n      mstore\n        /* \"#utility.yul\":5102:5135   */\n      0x4d61726b65743a2053656c6c6572206d757374206265206f70657261746f7200\n        /* \"#utility.yul\":5082:5100   */\n      0x44\n      dup3\n      add\n        /* \"#utility.yul\":5075:5136   */\n      mstore\n        /* \"#utility.yul\":5153:5171   */\n      0x64\n      add\n        /* \"contracts/nft-market.sol\":4312:4376  require(_operator == _seller, \"Market: Seller must be operator\") */\n    tag_81:\n      mload(0x40)\n      dup1\n      swap2\n      sub\n      swap1\n      revert\n    tag_80:\n        /* \"contracts/nft-market.sol\":4386:4400  uint256 _price */\n      0x00\n        /* \"contracts/nft-market.sol\":4403:4422  toUint256(_data, 0) */\n      tag_83\n        /* \"contracts/nft-market.sol\":4413:4418  _data */\n      dup5\n      dup5\n        /* \"contracts/nft-market.sol\":4403:4422  toUint256(_data, 0) */\n      dup1\n      dup1\n      0x1f\n      add\n      0x20\n      dup1\n      swap2\n      div\n      mul\n      0x20\n      add\n      mload(0x40)\n      swap1\n      dup2\n      add\n      0x40\n      mstore\n      dup1\n      swap4\n      swap3\n      swap2\n      swap1\n      dup2\n      dup2\n      mstore\n      0x20\n      add\n      dup4\n      dup4\n      dup1\n      dup3\n      dup5\n      calldatacopy\n      0x00\n      swap3\n      add\n      dup3\n      swap1\n      mstore\n      pop\n      swap3\n      pop\n        /* \"contracts/nft-market.sol\":4403:4412  toUint256 */\n      tag_58\n      swap2\n      pop\n      pop\n        /* \"contracts/nft-market.sol\":4403:4422  toUint256(_data, 0) */\n      jump\t// in\n    tag_83:\n        /* \"contracts/nft-market.sol\":4386:4422  uint256 _price = toUint256(_data, 0) */\n      swap1\n      pop\n        /* \"contracts/nft-market.sol\":4432:4469  placeOrder(_seller, _tokenId, _price) */\n      tag_84\n        /* \"contracts/nft-market.sol\":4443:4450  _seller */\n      dup7\n        /* \"contracts/nft-market.sol\":4452:4460  _tokenId */\n      dup7\n        /* \"contracts/nft-market.sol\":4462:4468  _price */\n      dup4\n        /* \"contracts/nft-market.sol\":4432:4442  placeOrder */\n      tag_85\n        /* \"contracts/nft-market.sol\":4432:4469  placeOrder(_seller, _tokenId, _price) */\n      jump\t// in\n    tag_84:\n      pop\n      shl(0xe1, 0x0a85bd01)\n        /* \"contracts/nft-market.sol\":4487:4511  MAGIC_ON_ERC721_RECEIVED */\n      swap7\n        /* \"contracts/nft-market.sol\":4129:4518  function onERC721Received(... */\n      swap6\n      pop\n      pop\n      pop\n      pop\n      pop\n      pop\n      jump\t// out\n        /* \"contracts/nft-market.sol\":1996:2392  function cancelOrder(uint256 _tokenId) external {... */\n    tag_34:\n        /* \"contracts/nft-market.sol\":3684:3688  bool */\n      0x00\n        /* \"contracts/nft-market.sol\":3707:3726  orderOfId[_tokenId] */\n      dup2\n      dup2\n      mstore\n        /* \"contracts/nft-market.sol\":3707:3716  orderOfId */\n      0x02\n        /* \"contracts/nft-market.sol\":3707:3726  orderOfId[_tokenId] */\n      0x20\n      mstore\n      0x40\n      swap1\n      keccak256\n        /* \"contracts/nft-market.sol\":3707:3733  orderOfId[_tokenId].seller */\n      sload\n      sub(shl(0xa0, 0x01), 0x01)\n      and\n        /* \"contracts/nft-market.sol\":2054:2115  require(isListed(_tokenId), \"Market: Token ID is not listed\") */\n      tag_88\n      jumpi\n      mload(0x40)\n      shl(0xe5, 0x461bcd)\n      dup2\n      mstore\n      0x04\n      add\n      tag_81\n      swap1\n      tag_90\n      jump\t// in\n    tag_88:\n        /* \"contracts/nft-market.sol\":2126:2140  address seller */\n      0x00\n        /* \"contracts/nft-market.sol\":2143:2162  orderOfId[_tokenId] */\n      dup2\n      dup2\n      mstore\n        /* \"contracts/nft-market.sol\":2143:2152  orderOfId */\n      0x02\n        /* \"contracts/nft-market.sol\":2143:2162  orderOfId[_tokenId] */\n      0x20\n      mstore\n      0x40\n      swap1\n      keccak256\n        /* \"contracts/nft-market.sol\":2143:2169  orderOfId[_tokenId].seller */\n      sload\n      sub(shl(0xa0, 0x01), 0x01)\n      and\n        /* \"contracts/nft-market.sol\":2197:2207  msg.sender */\n      caller\n        /* \"contracts/nft-market.sol\":2187:2207  seller == msg.sender */\n      dup2\n      eq\n        /* \"contracts/nft-market.sol\":2179:2240  require(seller == msg.sender, \"Market: Sender is not seller\") */\n      tag_91\n      jumpi\n      mload(0x40)\n      shl(0xe5, 0x461bcd)\n      dup2\n      mstore\n        /* \"#utility.yul\":5743:5745   */\n      0x20\n        /* \"contracts/nft-market.sol\":2179:2240  require(seller == msg.sender, \"Market: Sender is not seller\") */\n      0x04\n      dup3\n      add\n        /* \"#utility.yul\":5725:5746   */\n      mstore\n        /* \"#utility.yul\":5782:5784   */\n      0x1c\n        /* \"#utility.yul\":5762:5780   */\n      0x24\n      dup3\n      add\n        /* \"#utility.yul\":5755:5785   */\n      mstore\n        /* \"#utility.yul\":5821:5851   */\n      0x4d61726b65743a2053656e646572206973206e6f742073656c6c657200000000\n        /* \"#utility.yul\":5801:5819   */\n      0x44\n      dup3\n      add\n        /* \"#utility.yul\":5794:5852   */\n      mstore\n        /* \"#utility.yul\":5869:5887   */\n      0x64\n      add\n        /* \"contracts/nft-market.sol\":2179:2240  require(seller == msg.sender, \"Market: Sender is not seller\") */\n      tag_81\n        /* \"#utility.yul\":5541:5893   */\n      jump\n        /* \"contracts/nft-market.sol\":2179:2240  require(seller == msg.sender, \"Market: Sender is not seller\") */\n    tag_91:\n        /* \"contracts/nft-market.sol\":2251:2257  erc721 */\n      sload(0x01)\n        /* \"contracts/nft-market.sol\":2251:2307  erc721.safeTransferFrom(address(this), seller, _tokenId) */\n      mload(0x40)\n      shl(0xe1, 0x21421707)\n      dup2\n      mstore\n        /* \"contracts/nft-market.sol\":2283:2287  this */\n      address\n        /* \"contracts/nft-market.sol\":2251:2307  erc721.safeTransferFrom(address(this), seller, _tokenId) */\n      0x04\n      dup3\n      add\n        /* \"#utility.yul\":6138:6172   */\n      mstore\n      sub(shl(0xa0, 0x01), 0x01)\n        /* \"#utility.yul\":6208:6223   */\n      dup4\n      dup2\n      and\n        /* \"#utility.yul\":6188:6206   */\n      0x24\n      dup4\n      add\n        /* \"#utility.yul\":6181:6224   */\n      mstore\n        /* \"#utility.yul\":6240:6258   */\n      0x44\n      dup3\n      add\n        /* \"#utility.yul\":6233:6267   */\n      dup6\n      swap1\n      mstore\n        /* \"contracts/nft-market.sol\":2251:2257  erc721 */\n      swap1\n      swap2\n      and\n      swap1\n        /* \"contracts/nft-market.sol\":2251:2274  erc721.safeTransferFrom */\n      0x42842e0e\n      swap1\n        /* \"#utility.yul\":6073:6091   */\n      0x64\n      add\n        /* \"contracts/nft-market.sol\":2251:2307  erc721.safeTransferFrom(address(this), seller, _tokenId) */\n      0x00\n      mload(0x40)\n      dup1\n      dup4\n      sub\n      dup2\n      0x00\n      dup8\n      dup1\n      extcodesize\n      iszero\n      dup1\n      iszero\n      tag_96\n      jumpi\n      0x00\n      dup1\n      revert\n    tag_96:\n      pop\n      gas\n      call\n      iszero\n      dup1\n      iszero\n      tag_98\n      jumpi\n      returndatasize\n      0x00\n      dup1\n      returndatacopy\n      revert(0x00, returndatasize)\n    tag_98:\n      pop\n      pop\n      pop\n      pop\n        /* \"contracts/nft-market.sol\":2317:2340  removeListing(_tokenId) */\n      tag_99\n        /* \"contracts/nft-market.sol\":2331:2339  _tokenId */\n      dup3\n        /* \"contracts/nft-market.sol\":2317:2330  removeListing */\n      tag_100\n        /* \"contracts/nft-market.sol\":2317:2340  removeListing(_tokenId) */\n      jump\t// in\n    tag_99:\n        /* \"contracts/nft-market.sol\":2356:2385  CancelOrder(seller, _tokenId) */\n      0x40\n      dup1\n      mload\n      sub(shl(0xa0, 0x01), 0x01)\n        /* \"#utility.yul\":6470:6502   */\n      dup4\n      and\n        /* \"#utility.yul\":6452:6503   */\n      dup2\n      mstore\n        /* \"#utility.yul\":6534:6536   */\n      0x20\n        /* \"#utility.yul\":6519:6537   */\n      dup2\n      add\n        /* \"#utility.yul\":6512:6546   */\n      dup5\n      swap1\n      mstore\n        /* \"contracts/nft-market.sol\":2356:2385  CancelOrder(seller, _tokenId) */\n      0xc0e68d6b69f741c21e955cad2ae4d505b6f6735c7e7b278251b3f6283a5f07eb\n      swap2\n        /* \"#utility.yul\":6425:6443   */\n      add\n        /* \"contracts/nft-market.sol\":2356:2385  CancelOrder(seller, _tokenId) */\n      mload(0x40)\n      dup1\n      swap2\n      sub\n      swap1\n      log1\n        /* \"contracts/nft-market.sol\":2044:2392  {... */\n      pop\n        /* \"contracts/nft-market.sol\":1996:2392  function cancelOrder(uint256 _tokenId) external {... */\n      pop\n      jump\t// out\n        /* \"contracts/nft-market.sol\":3031:3621  function getMyNFTs() public view returns (Order[] memory) {... */\n    tag_36:\n        /* \"contracts/nft-market.sol\":3137:3143  orders */\n      0x03\n        /* \"contracts/nft-market.sol\":3137:3150  orders.length */\n      sload\n        /* \"contracts/nft-market.sol\":3073:3087  Order[] memory */\n      0x60\n      swap1\n        /* \"contracts/nft-market.sol\":3099:3122  Order[] memory myOrders */\n      0x00\n      swap1\n        /* \"contracts/nft-market.sol\":3125:3151  new Order[](orders.length) */\n      0xffffffffffffffff\n      dup2\n      gt\n      iszero\n      tag_105\n      jumpi\n      tag_105\n      tag_106\n      jump\t// in\n    tag_105:\n      mload(0x40)\n      swap1\n      dup1\n      dup3\n      mstore\n      dup1\n      0x20\n      mul\n      0x20\n      add\n      dup3\n      add\n      0x40\n      mstore\n      dup1\n      iszero\n      tag_107\n      jumpi\n      dup2\n      0x20\n      add\n    tag_108:\n      tag_109\n      mload(0x40)\n      dup1\n      0x60\n      add\n      0x40\n      mstore\n      dup1\n      and(sub(shl(0xa0, 0x01), 0x01), 0x00)\n      dup2\n      mstore\n      0x20\n      add\n      0x00\n      dup2\n      mstore\n      0x20\n      add\n      0x00\n      dup2\n      mstore\n      pop\n      swap1\n      jump\n    tag_109:\n      dup2\n      mstore\n      0x20\n      add\n      swap1\n      0x01\n      swap1\n      sub\n      swap1\n      dup2\n      tag_108\n      jumpi\n      swap1\n      pop\n    tag_107:\n      pop\n        /* \"contracts/nft-market.sol\":3099:3151  Order[] memory myOrders = new Order[](orders.length) */\n      swap1\n      pop\n        /* \"contracts/nft-market.sol\":3161:3182  uint256 myOrdersCount */\n      0x00\n        /* \"contracts/nft-market.sol\":3202:3211  uint256 i */\n      dup1\n        /* \"contracts/nft-market.sol\":3197:3402  for (uint256 i = 0; i < orders.length; i++) {... */\n    tag_111:\n        /* \"contracts/nft-market.sol\":3221:3227  orders */\n      0x03\n        /* \"contracts/nft-market.sol\":3221:3234  orders.length */\n      sload\n        /* \"contracts/nft-market.sol\":3217:3234  i < orders.length */\n      dup2\n      lt\n        /* \"contracts/nft-market.sol\":3197:3402  for (uint256 i = 0; i < orders.length; i++) {... */\n      iszero\n      tag_112\n      jumpi\n        /* \"contracts/nft-market.sol\":3279:3289  msg.sender */\n      caller\n      sub(shl(0xa0, 0x01), 0x01)\n        /* \"contracts/nft-market.sol\":3259:3289  orders[i].seller == msg.sender */\n      and\n        /* \"contracts/nft-market.sol\":3259:3265  orders */\n      0x03\n        /* \"contracts/nft-market.sol\":3266:3267  i */\n      dup3\n        /* \"contracts/nft-market.sol\":3259:3268  orders[i] */\n      dup2\n      sload\n      dup2\n      lt\n      tag_115\n      jumpi\n      tag_115\n      tag_116\n      jump\t// in\n    tag_115:\n      0x00\n      swap2\n      dup3\n      mstore\n      0x20\n      swap1\n      swap2\n      keccak256\n      0x03\n      swap1\n      swap2\n      mul\n      add\n        /* \"contracts/nft-market.sol\":3259:3275  orders[i].seller */\n      sload\n      sub(shl(0xa0, 0x01), 0x01)\n      and\n        /* \"contracts/nft-market.sol\":3259:3289  orders[i].seller == msg.sender */\n      sub\n        /* \"contracts/nft-market.sol\":3255:3392  if (orders[i].seller == msg.sender) {... */\n      tag_118\n      jumpi\n        /* \"contracts/nft-market.sol\":3335:3341  orders */\n      0x03\n        /* \"contracts/nft-market.sol\":3342:3343  i */\n      dup2\n        /* \"contracts/nft-market.sol\":3335:3344  orders[i] */\n      dup2\n      sload\n      dup2\n      lt\n      tag_120\n      jumpi\n      tag_120\n      tag_116\n      jump\t// in\n    tag_120:\n      0x00\n      swap2\n      dup3\n      mstore\n      0x20\n      swap2\n      dup3\n      swap1\n      keccak256\n        /* \"contracts/nft-market.sol\":3309:3344  myOrders[myOrdersCount] = orders[i] */\n      0x40\n      dup1\n      mload\n      0x60\n      dup2\n      add\n      dup3\n      mstore\n        /* \"contracts/nft-market.sol\":3335:3344  orders[i] */\n      0x03\n      swap1\n      swap4\n      mul\n      swap1\n      swap2\n      add\n        /* \"contracts/nft-market.sol\":3309:3344  myOrders[myOrdersCount] = orders[i] */\n      dup1\n      sload\n      sub(shl(0xa0, 0x01), 0x01)\n      and\n      dup4\n      mstore\n      0x01\n      dup2\n      add\n      sload\n      swap4\n      dup4\n      add\n      swap4\n      swap1\n      swap4\n      mstore\n      0x02\n      swap1\n      swap3\n      add\n      sload\n      swap2\n      dup2\n      add\n      swap2\n      swap1\n      swap2\n      mstore\n        /* \"contracts/nft-market.sol\":3309:3332  myOrders[myOrdersCount] */\n      dup4\n      mload\n        /* \"contracts/nft-market.sol\":3309:3317  myOrders */\n      dup5\n      swap1\n        /* \"contracts/nft-market.sol\":3318:3331  myOrdersCount */\n      dup5\n      swap1\n        /* \"contracts/nft-market.sol\":3309:3332  myOrders[myOrdersCount] */\n      dup2\n      lt\n      tag_123\n      jumpi\n      tag_123\n      tag_116\n      jump\t// in\n    tag_123:\n      0x20\n      mul\n      0x20\n      add\n      add\n        /* \"contracts/nft-market.sol\":3309:3344  myOrders[myOrdersCount] = orders[i] */\n      dup2\n      swap1\n      mstore\n      pop\n        /* \"contracts/nft-market.sol\":3362:3377  myOrdersCount++ */\n      dup2\n      dup1\n      tag_124\n      swap1\n      tag_125\n      jump\t// in\n    tag_124:\n      swap3\n      pop\n      pop\n        /* \"contracts/nft-market.sol\":3255:3392  if (orders[i].seller == msg.sender) {... */\n    tag_118:\n        /* \"contracts/nft-market.sol\":3236:3239  i++ */\n      0x01\n      add\n        /* \"contracts/nft-market.sol\":3197:3402  for (uint256 i = 0; i < orders.length; i++) {... */\n      jump(tag_111)\n    tag_112:\n      pop\n        /* \"contracts/nft-market.sol\":3412:3442  Order[] memory myOrdersTrimmed */\n      0x00\n        /* \"contracts/nft-market.sol\":3457:3470  myOrdersCount */\n      dup2\n        /* \"contracts/nft-market.sol\":3445:3471  new Order[](myOrdersCount) */\n      0xffffffffffffffff\n      dup2\n      gt\n      iszero\n      tag_127\n      jumpi\n      tag_127\n      tag_106\n      jump\t// in\n    tag_127:\n      mload(0x40)\n      swap1\n      dup1\n      dup3\n      mstore\n      dup1\n      0x20\n      mul\n      0x20\n      add\n      dup3\n      add\n      0x40\n      mstore\n      dup1\n      iszero\n      tag_128\n      jumpi\n      dup2\n      0x20\n      add\n    tag_129:\n      tag_130\n      mload(0x40)\n      dup1\n      0x60\n      add\n      0x40\n      mstore\n      dup1\n      and(sub(shl(0xa0, 0x01), 0x01), 0x00)\n      dup2\n      mstore\n      0x20\n      add\n      0x00\n      dup2\n      mstore\n      0x20\n      add\n      0x00\n      dup2\n      mstore\n      pop\n      swap1\n      jump\n    tag_130:\n      dup2\n      mstore\n      0x20\n      add\n      swap1\n      0x01\n      swap1\n      sub\n      swap1\n      dup2\n      tag_129\n      jumpi\n      swap1\n      pop\n    tag_128:\n      pop\n        /* \"contracts/nft-market.sol\":3412:3471  Order[] memory myOrdersTrimmed = new Order[](myOrdersCount) */\n      swap1\n      pop\n        /* \"contracts/nft-market.sol\":3486:3495  uint256 i */\n      0x00\n        /* \"contracts/nft-market.sol\":3481:3582  for (uint256 i = 0; i < myOrdersCount; i++) {... */\n    tag_131:\n        /* \"contracts/nft-market.sol\":3505:3518  myOrdersCount */\n      dup3\n        /* \"contracts/nft-market.sol\":3501:3502  i */\n      dup2\n        /* \"contracts/nft-market.sol\":3501:3518  i < myOrdersCount */\n      lt\n        /* \"contracts/nft-market.sol\":3481:3582  for (uint256 i = 0; i < myOrdersCount; i++) {... */\n      iszero\n      tag_132\n      jumpi\n        /* \"contracts/nft-market.sol\":3560:3568  myOrders */\n      dup4\n        /* \"contracts/nft-market.sol\":3569:3570  i */\n      dup2\n        /* \"contracts/nft-market.sol\":3560:3571  myOrders[i] */\n      dup2\n      mload\n      dup2\n      lt\n      tag_135\n      jumpi\n      tag_135\n      tag_116\n      jump\t// in\n    tag_135:\n      0x20\n      mul\n      0x20\n      add\n      add\n      mload\n        /* \"contracts/nft-market.sol\":3539:3554  myOrdersTrimmed */\n      dup3\n        /* \"contracts/nft-market.sol\":3555:3556  i */\n      dup3\n        /* \"contracts/nft-market.sol\":3539:3557  myOrdersTrimmed[i] */\n      dup2\n      mload\n      dup2\n      lt\n      tag_137\n      jumpi\n      tag_137\n      tag_116\n      jump\t// in\n    tag_137:\n      0x20\n      swap1\n      dup2\n      mul\n      swap2\n      swap1\n      swap2\n      add\n      add\n        /* \"contracts/nft-market.sol\":3539:3571  myOrdersTrimmed[i] = myOrders[i] */\n      mstore\n        /* \"contracts/nft-market.sol\":3520:3523  i++ */\n      0x01\n      add\n        /* \"contracts/nft-market.sol\":3481:3582  for (uint256 i = 0; i < myOrdersCount; i++) {... */\n      jump(tag_131)\n    tag_132:\n      pop\n        /* \"contracts/nft-market.sol\":3599:3614  myOrdersTrimmed */\n      swap4\n        /* \"contracts/nft-market.sol\":3031:3621  function getMyNFTs() public view returns (Order[] memory) {... */\n      swap3\n      pop\n      pop\n      pop\n      jump\t// out\n        /* \"contracts/nft-market.sol\":650:671  Order[] public orders */\n    tag_49:\n      0x03\n      dup2\n      dup2\n      sload\n      dup2\n      lt\n      tag_139\n      jumpi\n      0x00\n      dup1\n      revert\n    tag_139:\n      0x00\n      swap2\n      dup3\n      mstore\n      0x20\n      swap1\n      swap2\n      keccak256\n      0x03\n      swap1\n      swap2\n      mul\n      add\n      dup1\n      sload\n      0x01\n      dup3\n      add\n      sload\n      0x02\n      swap1\n      swap3\n      add\n      sload\n      sub(shl(0xa0, 0x01), 0x01)\n      swap1\n      swap2\n      and\n      swap3\n      pop\n      dup4\n      jump\t// out\n        /* \"contracts/nft-market.sol\":2398:2930  function changePrice(uint256 _tokenId, uint256 _price) external {... */\n    tag_54:\n        /* \"contracts/nft-market.sol\":3684:3688  bool */\n      0x00\n        /* \"contracts/nft-market.sol\":3707:3726  orderOfId[_tokenId] */\n      dup3\n      dup2\n      mstore\n        /* \"contracts/nft-market.sol\":3707:3716  orderOfId */\n      0x02\n        /* \"contracts/nft-market.sol\":3707:3726  orderOfId[_tokenId] */\n      0x20\n      mstore\n      0x40\n      swap1\n      keccak256\n        /* \"contracts/nft-market.sol\":3707:3733  orderOfId[_tokenId].seller */\n      sload\n      sub(shl(0xa0, 0x01), 0x01)\n      and\n        /* \"contracts/nft-market.sol\":2472:2533  require(isListed(_tokenId), \"Market: Token ID is not listed\") */\n      tag_143\n      jumpi\n      mload(0x40)\n      shl(0xe5, 0x461bcd)\n      dup2\n      mstore\n      0x04\n      add\n      tag_81\n      swap1\n      tag_90\n      jump\t// in\n    tag_143:\n        /* \"contracts/nft-market.sol\":2543:2557  address seller */\n      0x00\n        /* \"contracts/nft-market.sol\":2560:2579  orderOfId[_tokenId] */\n      dup3\n      dup2\n      mstore\n        /* \"contracts/nft-market.sol\":2560:2569  orderOfId */\n      0x02\n        /* \"contracts/nft-market.sol\":2560:2579  orderOfId[_tokenId] */\n      0x20\n      mstore\n      0x40\n      swap1\n      keccak256\n        /* \"contracts/nft-market.sol\":2560:2586  orderOfId[_tokenId].seller */\n      sload\n      sub(shl(0xa0, 0x01), 0x01)\n      and\n        /* \"contracts/nft-market.sol\":2614:2624  msg.sender */\n      caller\n        /* \"contracts/nft-market.sol\":2604:2624  seller == msg.sender */\n      dup2\n      eq\n        /* \"contracts/nft-market.sol\":2596:2657  require(seller == msg.sender, \"Market: Sender is not seller\") */\n      tag_145\n      jumpi\n      mload(0x40)\n      shl(0xe5, 0x461bcd)\n      dup2\n      mstore\n        /* \"#utility.yul\":5743:5745   */\n      0x20\n        /* \"contracts/nft-market.sol\":2596:2657  require(seller == msg.sender, \"Market: Sender is not seller\") */\n      0x04\n      dup3\n      add\n        /* \"#utility.yul\":5725:5746   */\n      mstore\n        /* \"#utility.yul\":5782:5784   */\n      0x1c\n        /* \"#utility.yul\":5762:5780   */\n      0x24\n      dup3\n      add\n        /* \"#utility.yul\":5755:5785   */\n      mstore\n        /* \"#utility.yul\":5821:5851   */\n      0x4d61726b65743a2053656e646572206973206e6f742073656c6c657200000000\n        /* \"#utility.yul\":5801:5819   */\n      0x44\n      dup3\n      add\n        /* \"#utility.yul\":5794:5852   */\n      mstore\n        /* \"#utility.yul\":5869:5887   */\n      0x64\n      add\n        /* \"contracts/nft-market.sol\":2596:2657  require(seller == msg.sender, \"Market: Sender is not seller\") */\n      tag_81\n        /* \"#utility.yul\":5541:5893   */\n      jump\n        /* \"contracts/nft-market.sol\":2596:2657  require(seller == msg.sender, \"Market: Sender is not seller\") */\n    tag_145:\n        /* \"contracts/nft-market.sol\":2668:2689  uint256 previousPrice */\n      0x00\n        /* \"contracts/nft-market.sol\":2692:2711  orderOfId[_tokenId] */\n      dup4\n      dup2\n      mstore\n        /* \"contracts/nft-market.sol\":2692:2701  orderOfId */\n      0x02\n        /* \"contracts/nft-market.sol\":2692:2711  orderOfId[_tokenId] */\n      0x20\n      dup2\n      dup2\n      mstore\n      0x40\n      dup1\n      dup5\n      keccak256\n        /* \"contracts/nft-market.sol\":2692:2717  orderOfId[_tokenId].price */\n      swap1\n      swap3\n      add\n      dup1\n      sload\n        /* \"contracts/nft-market.sol\":2727:2761  orderOfId[_tokenId].price = _price */\n      swap1\n      dup7\n      swap1\n      sstore\n        /* \"contracts/nft-market.sol\":2800:2814  idToOrderIndex */\n      0x04\n        /* \"contracts/nft-market.sol\":2800:2824  idToOrderIndex[_tokenId] */\n      swap1\n      swap2\n      mstore\n      swap1\n      dup3\n      keccak256\n      sload\n        /* \"contracts/nft-market.sol\":2793:2799  orders */\n      0x03\n        /* \"contracts/nft-market.sol\":2793:2825  orders[idToOrderIndex[_tokenId]] */\n      dup1\n      sload\n        /* \"contracts/nft-market.sol\":2692:2717  orderOfId[_tokenId].price */\n      swap3\n      swap4\n        /* \"contracts/nft-market.sol\":2668:2689  uint256 previousPrice */\n      swap3\n        /* \"contracts/nft-market.sol\":2793:2799  orders */\n      swap1\n      swap2\n        /* \"contracts/nft-market.sol\":2800:2824  idToOrderIndex[_tokenId] */\n      swap1\n        /* \"contracts/nft-market.sol\":2793:2825  orders[idToOrderIndex[_tokenId]] */\n      dup2\n      lt\n      tag_148\n      jumpi\n      tag_148\n      tag_116\n      jump\t// in\n    tag_148:\n      0x00\n      swap2\n      dup3\n      mstore\n      0x20\n      swap2\n      dup3\n      swap1\n      keccak256\n        /* \"contracts/nft-market.sol\":2835:2846  order.price */\n      0x02\n        /* \"contracts/nft-market.sol\":2793:2825  orders[idToOrderIndex[_tokenId]] */\n      0x03\n      swap1\n      swap3\n      mul\n      add\n        /* \"contracts/nft-market.sol\":2835:2846  order.price */\n      swap1\n      dup2\n      add\n        /* \"contracts/nft-market.sol\":2835:2855  order.price = _price */\n      dup7\n      swap1\n      sstore\n        /* \"contracts/nft-market.sol\":2871:2923  ChangePrice(seller, _tokenId, previousPrice, _price) */\n      0x40\n      dup1\n      mload\n      sub(shl(0xa0, 0x01), 0x01)\n        /* \"#utility.yul\":7210:7242   */\n      dup8\n      and\n        /* \"#utility.yul\":7192:7243   */\n      dup2\n      mstore\n        /* \"#utility.yul\":7259:7277   */\n      swap3\n      dup4\n      add\n        /* \"#utility.yul\":7252:7286   */\n      dup9\n      swap1\n      mstore\n        /* \"#utility.yul\":7302:7320   */\n      dup3\n      add\n        /* \"#utility.yul\":7295:7329   */\n      dup5\n      swap1\n      mstore\n        /* \"#utility.yul\":7360:7362   */\n      0x60\n        /* \"#utility.yul\":7345:7363   */\n      dup3\n      add\n        /* \"#utility.yul\":7338:7372   */\n      dup7\n      swap1\n      mstore\n        /* \"contracts/nft-market.sol\":2793:2825  orders[idToOrderIndex[_tokenId]] */\n      swap2\n      pop\n        /* \"contracts/nft-market.sol\":2871:2923  ChangePrice(seller, _tokenId, previousPrice, _price) */\n      0x342a7f6248980b0f191b96eb6b7a439c4da78b2c97b86ca66cc7ee90d4b04cce\n      swap1\n        /* \"#utility.yul\":7179:7182   */\n      0x80\n        /* \"#utility.yul\":7164:7183   */\n      add\n        /* \"contracts/nft-market.sol\":2871:2923  ChangePrice(seller, _tokenId, previousPrice, _price) */\n      mload(0x40)\n      dup1\n      swap2\n      sub\n      swap1\n      log1\n        /* \"contracts/nft-market.sol\":2462:2930  {... */\n      pop\n      pop\n      pop\n        /* \"contracts/nft-market.sol\":2398:2930  function changePrice(uint256 _tokenId, uint256 _price) external {... */\n      pop\n      pop\n      jump\t// out\n        /* \"contracts/nft-market.sol\":4642:5051  function toUint256(... */\n    tag_58:\n        /* \"contracts/nft-market.sol\":4741:4748  uint256 */\n      0x00\n        /* \"contracts/nft-market.sol\":4783:4789  _start */\n      dup2\n        /* \"contracts/nft-market.sol\":4768:4779  _start + 32 */\n      tag_153\n        /* \"contracts/nft-market.sol\":4783:4789  _start */\n      dup2\n        /* \"contracts/nft-market.sol\":4777:4779  32 */\n      0x20\n        /* \"contracts/nft-market.sol\":4768:4779  _start + 32 */\n      tag_154\n      jump\t// in\n    tag_153:\n        /* \"contracts/nft-market.sol\":4768:4789  _start + 32 >= _start */\n      lt\n      iszero\n        /* \"contracts/nft-market.sol\":4760:4820  require(_start + 32 >= _start, \"Market: toUint256_overflow\") */\n      tag_155\n      jumpi\n      mload(0x40)\n      shl(0xe5, 0x461bcd)\n      dup2\n      mstore\n        /* \"#utility.yul\":7715:7717   */\n      0x20\n        /* \"contracts/nft-market.sol\":4760:4820  require(_start + 32 >= _start, \"Market: toUint256_overflow\") */\n      0x04\n      dup3\n      add\n        /* \"#utility.yul\":7697:7718   */\n      mstore\n        /* \"#utility.yul\":7754:7756   */\n      0x1a\n        /* \"#utility.yul\":7734:7752   */\n      0x24\n      dup3\n      add\n        /* \"#utility.yul\":7727:7757   */\n      mstore\n        /* \"#utility.yul\":7793:7821   */\n      0x4d61726b65743a20746f55696e743235365f6f766572666c6f77000000000000\n        /* \"#utility.yul\":7773:7791   */\n      0x44\n      dup3\n      add\n        /* \"#utility.yul\":7766:7822   */\n      mstore\n        /* \"#utility.yul\":7839:7857   */\n      0x64\n      add\n        /* \"contracts/nft-market.sol\":4760:4820  require(_start + 32 >= _start, \"Market: toUint256_overflow\") */\n      tag_81\n        /* \"#utility.yul\":7513:7863   */\n      jump\n        /* \"contracts/nft-market.sol\":4760:4820  require(_start + 32 >= _start, \"Market: toUint256_overflow\") */\n    tag_155:\n        /* \"contracts/nft-market.sol\":4855:4866  _start + 32 */\n      tag_158\n        /* \"contracts/nft-market.sol\":4855:4861  _start */\n      dup3\n        /* \"contracts/nft-market.sol\":4864:4866  32 */\n      0x20\n        /* \"contracts/nft-market.sol\":4855:4866  _start + 32 */\n      tag_154\n      jump\t// in\n    tag_158:\n        /* \"contracts/nft-market.sol\":4838:4844  _bytes */\n      dup4\n        /* \"contracts/nft-market.sol\":4838:4851  _bytes.length */\n      mload\n        /* \"contracts/nft-market.sol\":4838:4866  _bytes.length >= _start + 32 */\n      lt\n      iszero\n        /* \"contracts/nft-market.sol\":4830:4900  require(_bytes.length >= _start + 32, \"Market: toUint256_outOfBounds\") */\n      tag_159\n      jumpi\n      mload(0x40)\n      shl(0xe5, 0x461bcd)\n      dup2\n      mstore\n        /* \"#utility.yul\":8070:8072   */\n      0x20\n        /* \"contracts/nft-market.sol\":4830:4900  require(_bytes.length >= _start + 32, \"Market: toUint256_outOfBounds\") */\n      0x04\n      dup3\n      add\n        /* \"#utility.yul\":8052:8073   */\n      mstore\n        /* \"#utility.yul\":8109:8111   */\n      0x1d\n        /* \"#utility.yul\":8089:8107   */\n      0x24\n      dup3\n      add\n        /* \"#utility.yul\":8082:8112   */\n      mstore\n        /* \"#utility.yul\":8148:8179   */\n      0x4d61726b65743a20746f55696e743235365f6f75744f66426f756e6473000000\n        /* \"#utility.yul\":8128:8146   */\n      0x44\n      dup3\n      add\n        /* \"#utility.yul\":8121:8180   */\n      mstore\n        /* \"#utility.yul\":8197:8215   */\n      0x64\n      add\n        /* \"contracts/nft-market.sol\":4830:4900  require(_bytes.length >= _start + 32, \"Market: toUint256_outOfBounds\") */\n      tag_81\n        /* \"#utility.yul\":7868:8221   */\n      jump\n        /* \"contracts/nft-market.sol\":4830:4900  require(_bytes.length >= _start + 32, \"Market: toUint256_outOfBounds\") */\n    tag_159:\n      pop\n        /* \"contracts/nft-market.sol\":4978:5008  add(add(_bytes, 0x20), _start) */\n      dup2\n      dup2\n      add\n        /* \"contracts/nft-market.sol\":4994:4998  0x20 */\n      0x20\n        /* \"contracts/nft-market.sol\":4978:5008  add(add(_bytes, 0x20), _start) */\n      add\n        /* \"contracts/nft-market.sol\":4972:5009  mload(add(add(_bytes, 0x20), _start)) */\n      mload\n        /* \"contracts/nft-market.sol\":4642:5051  function toUint256(... */\n    tag_152:\n      swap3\n      swap2\n      pop\n      pop\n      jump\t// out\n        /* \"contracts/nft-market.sol\":1446:1990  function buy(uint256 _tokenId) external {... */\n    tag_66:\n        /* \"contracts/nft-market.sol\":3684:3688  bool */\n      0x00\n        /* \"contracts/nft-market.sol\":3707:3726  orderOfId[_tokenId] */\n      dup2\n      dup2\n      mstore\n        /* \"contracts/nft-market.sol\":3707:3716  orderOfId */\n      0x02\n        /* \"contracts/nft-market.sol\":3707:3726  orderOfId[_tokenId] */\n      0x20\n      mstore\n      0x40\n      swap1\n      keccak256\n        /* \"contracts/nft-market.sol\":3707:3733  orderOfId[_tokenId].seller */\n      sload\n      sub(shl(0xa0, 0x01), 0x01)\n      and\n        /* \"contracts/nft-market.sol\":1496:1557  require(isListed(_tokenId), \"Market: Token ID is not listed\") */\n      tag_164\n      jumpi\n      mload(0x40)\n      shl(0xe5, 0x461bcd)\n      dup2\n      mstore\n      0x04\n      add\n      tag_81\n      swap1\n      tag_90\n      jump\t// in\n    tag_164:\n        /* \"contracts/nft-market.sol\":1568:1582  address seller */\n      0x00\n        /* \"contracts/nft-market.sol\":1585:1604  orderOfId[_tokenId] */\n      dup2\n      dup2\n      mstore\n        /* \"contracts/nft-market.sol\":1585:1594  orderOfId */\n      0x02\n        /* \"contracts/nft-market.sol\":1585:1604  orderOfId[_tokenId] */\n      0x20\n      dup2\n      swap1\n      mstore\n      0x40\n      dup1\n      dup4\n      keccak256\n        /* \"contracts/nft-market.sol\":1585:1611  orderOfId[_tokenId].seller */\n      dup1\n      sload\n        /* \"contracts/nft-market.sol\":1673:1698  orderOfId[_tokenId].price */\n      swap3\n      add\n      sload\n        /* \"contracts/nft-market.sol\":1730:1735  erc20 */\n      swap3\n      sload\n        /* \"contracts/nft-market.sol\":1730:1770  erc20.transferFrom(buyer, seller, price) */\n      swap1\n      mload\n      shl(0xe0, 0x23b872dd)\n      dup2\n      mstore\n        /* \"contracts/nft-market.sol\":1637:1647  msg.sender */\n      caller\n        /* \"contracts/nft-market.sol\":1730:1770  erc20.transferFrom(buyer, seller, price) */\n      0x04\n      dup3\n      add\n        /* \"#utility.yul\":6138:6172   */\n      dup2\n      swap1\n      mstore\n      sub(shl(0xa0, 0x01), 0x01)\n        /* \"contracts/nft-market.sol\":1585:1611  orderOfId[_tokenId].seller */\n      swap4\n      dup5\n      and\n        /* \"#utility.yul\":6188:6206   */\n      0x24\n      dup4\n      add\n        /* \"#utility.yul\":6181:6224   */\n      dup2\n      swap1\n      mstore\n        /* \"#utility.yul\":6240:6258   */\n      0x44\n      dup4\n      add\n        /* \"#utility.yul\":6233:6267   */\n      dup7\n      swap1\n      mstore\n        /* \"contracts/nft-market.sol\":1585:1611  orderOfId[_tokenId].seller */\n      swap5\n        /* \"contracts/nft-market.sol\":1637:1647  msg.sender */\n      swap1\n      swap4\n        /* \"contracts/nft-market.sol\":1673:1698  orderOfId[_tokenId].price */\n      swap1\n      swap3\n        /* \"contracts/nft-market.sol\":1730:1735  erc20 */\n      and\n      swap1\n        /* \"contracts/nft-market.sol\":1730:1748  erc20.transferFrom */\n      0x23b872dd\n      swap1\n        /* \"#utility.yul\":6073:6091   */\n      0x64\n      add\n        /* \"contracts/nft-market.sol\":1730:1770  erc20.transferFrom(buyer, seller, price) */\n      0x20\n      mload(0x40)\n      dup1\n      dup4\n      sub\n      dup2\n      0x00\n      dup8\n      gas\n      call\n      iszero\n      dup1\n      iszero\n      tag_168\n      jumpi\n      returndatasize\n      0x00\n      dup1\n      returndatacopy\n      revert(0x00, returndatasize)\n    tag_168:\n      pop\n      pop\n      pop\n      pop\n      mload(0x40)\n      returndatasize\n      not(0x1f)\n      0x1f\n      dup3\n      add\n      and\n      dup3\n      add\n      dup1\n      0x40\n      mstore\n      pop\n      dup2\n      add\n      swap1\n      tag_169\n      swap2\n      swap1\n      tag_170\n      jump\t// in\n    tag_169:\n        /* \"contracts/nft-market.sol\":1709:1833  require(... */\n      tag_171\n      jumpi\n      mload(0x40)\n      shl(0xe5, 0x461bcd)\n      dup2\n      mstore\n        /* \"#utility.yul\":8710:8712   */\n      0x20\n        /* \"contracts/nft-market.sol\":1709:1833  require(... */\n      0x04\n      dup3\n      add\n        /* \"#utility.yul\":8692:8713   */\n      mstore\n        /* \"#utility.yul\":8749:8751   */\n      0x25\n        /* \"#utility.yul\":8729:8747   */\n      0x24\n      dup3\n      add\n        /* \"#utility.yul\":8722:8752   */\n      mstore\n        /* \"#utility.yul\":8788:8822   */\n      0x4d61726b65743a204552433230207472616e73666572206e6f74207375636365\n        /* \"#utility.yul\":8768:8786   */\n      0x44\n      dup3\n      add\n        /* \"#utility.yul\":8761:8823   */\n      mstore\n      shl(0xda, 0x1cdcd99d5b)\n        /* \"#utility.yul\":8839:8857   */\n      0x64\n      dup3\n      add\n        /* \"#utility.yul\":8832:8867   */\n      mstore\n        /* \"#utility.yul\":8884:8903   */\n      0x84\n      add\n        /* \"contracts/nft-market.sol\":1709:1833  require(... */\n      tag_81\n        /* \"#utility.yul\":8508:8909   */\n      jump\n        /* \"contracts/nft-market.sol\":1709:1833  require(... */\n    tag_171:\n        /* \"contracts/nft-market.sol\":1843:1849  erc721 */\n      sload(0x01)\n        /* \"contracts/nft-market.sol\":1843:1898  erc721.safeTransferFrom(address(this), buyer, _tokenId) */\n      mload(0x40)\n      shl(0xe1, 0x21421707)\n      dup2\n      mstore\n        /* \"contracts/nft-market.sol\":1875:1879  this */\n      address\n        /* \"contracts/nft-market.sol\":1843:1898  erc721.safeTransferFrom(address(this), buyer, _tokenId) */\n      0x04\n      dup3\n      add\n        /* \"#utility.yul\":6138:6172   */\n      mstore\n      sub(shl(0xa0, 0x01), 0x01)\n        /* \"#utility.yul\":6208:6223   */\n      dup5\n      dup2\n      and\n        /* \"#utility.yul\":6188:6206   */\n      0x24\n      dup4\n      add\n        /* \"#utility.yul\":6181:6224   */\n      mstore\n        /* \"#utility.yul\":6240:6258   */\n      0x44\n      dup3\n      add\n        /* \"#utility.yul\":6233:6267   */\n      dup8\n      swap1\n      mstore\n        /* \"contracts/nft-market.sol\":1843:1849  erc721 */\n      swap1\n      swap2\n      and\n      swap1\n        /* \"contracts/nft-market.sol\":1843:1866  erc721.safeTransferFrom */\n      0x42842e0e\n      swap1\n        /* \"#utility.yul\":6073:6091   */\n      0x64\n      add\n        /* \"contracts/nft-market.sol\":1843:1898  erc721.safeTransferFrom(address(this), buyer, _tokenId) */\n      0x00\n      mload(0x40)\n      dup1\n      dup4\n      sub\n      dup2\n      0x00\n      dup8\n      dup1\n      extcodesize\n      iszero\n      dup1\n      iszero\n      tag_175\n      jumpi\n      0x00\n      dup1\n      revert\n    tag_175:\n      pop\n      gas\n      call\n      iszero\n      dup1\n      iszero\n      tag_177\n      jumpi\n      returndatasize\n      0x00\n      dup1\n      returndatacopy\n      revert(0x00, returndatasize)\n    tag_177:\n      pop\n      pop\n      pop\n      pop\n        /* \"contracts/nft-market.sol\":1908:1931  removeListing(_tokenId) */\n      tag_178\n        /* \"contracts/nft-market.sol\":1922:1930  _tokenId */\n      dup5\n        /* \"contracts/nft-market.sol\":1908:1921  removeListing */\n      tag_100\n        /* \"contracts/nft-market.sol\":1908:1931  removeListing(_tokenId) */\n      jump\t// in\n    tag_178:\n        /* \"contracts/nft-market.sol\":1947:1983  Deal(buyer, seller, _tokenId, price) */\n      0x40\n      dup1\n      mload\n      sub(shl(0xa0, 0x01), 0x01)\n        /* \"#utility.yul\":9201:9216   */\n      dup1\n      dup6\n      and\n        /* \"#utility.yul\":9183:9217   */\n      dup3\n      mstore\n        /* \"#utility.yul\":9253:9268   */\n      dup6\n      and\n        /* \"#utility.yul\":9248:9250   */\n      0x20\n        /* \"#utility.yul\":9233:9251   */\n      dup3\n      add\n        /* \"#utility.yul\":9226:9269   */\n      mstore\n        /* \"#utility.yul\":9285:9303   */\n      swap1\n      dup2\n      add\n        /* \"#utility.yul\":9278:9312   */\n      dup6\n      swap1\n      mstore\n        /* \"#utility.yul\":9343:9345   */\n      0x60\n        /* \"#utility.yul\":9328:9346   */\n      dup2\n      add\n        /* \"#utility.yul\":9321:9355   */\n      dup3\n      swap1\n      mstore\n        /* \"contracts/nft-market.sol\":1947:1983  Deal(buyer, seller, _tokenId, price) */\n      0x424d5e5f0192c7dacdbe646ca31b00299146d883d76a95ef5cddbac7cd342eab\n      swap1\n        /* \"#utility.yul\":9132:9135   */\n      0x80\n        /* \"#utility.yul\":9117:9136   */\n      add\n        /* \"contracts/nft-market.sol\":1947:1983  Deal(buyer, seller, _tokenId, price) */\n      mload(0x40)\n      dup1\n      swap2\n      sub\n      swap1\n      log1\n        /* \"contracts/nft-market.sol\":1486:1990  {... */\n      pop\n      pop\n      pop\n        /* \"contracts/nft-market.sol\":1446:1990  function buy(uint256 _tokenId) external {... */\n      pop\n      jump\t// out\n        /* \"contracts/nft-market.sol\":2936:3025  function getAllNFTs() public view returns (Order[] memory) {... */\n    tag_72:\n        /* \"contracts/nft-market.sol\":2979:2993  Order[] memory */\n      0x60\n        /* \"contracts/nft-market.sol\":3012:3018  orders */\n      0x03\n        /* \"contracts/nft-market.sol\":3005:3018  return orders */\n      dup1\n      sload\n      dup1\n      0x20\n      mul\n      0x20\n      add\n      mload(0x40)\n      swap1\n      dup2\n      add\n      0x40\n      mstore\n      dup1\n      swap3\n      swap2\n      swap1\n      dup2\n      dup2\n      mstore\n      0x20\n      add\n      0x00\n      swap1\n    tag_182:\n      dup3\n      dup3\n      lt\n      iszero\n      tag_183\n      jumpi\n      0x00\n      dup5\n      dup2\n      mstore\n      0x20\n      swap1\n      dup2\n      swap1\n      keccak256\n      0x40\n      dup1\n      mload\n      0x60\n      dup2\n      add\n      dup3\n      mstore\n      0x03\n      dup7\n      mul\n      swap1\n      swap3\n      add\n      dup1\n      sload\n      sub(shl(0xa0, 0x01), 0x01)\n      and\n      dup4\n      mstore\n      0x01\n      dup1\n      dup3\n      add\n      sload\n      dup5\n      dup7\n      add\n      mstore\n      0x02\n      swap1\n      swap2\n      add\n      sload\n      swap2\n      dup4\n      add\n      swap2\n      swap1\n      swap2\n      mstore\n      swap1\n      dup4\n      mstore\n      swap1\n      swap3\n      add\n      swap2\n      add\n      jump(tag_182)\n    tag_183:\n      pop\n      pop\n      pop\n      pop\n      swap1\n      pop\n        /* \"contracts/nft-market.sol\":2936:3025  function getAllNFTs() public view returns (Order[] memory) {... */\n      swap1\n      jump\t// out\n        /* \"contracts/nft-market.sol\":5057:5533  function placeOrder(... */\n    tag_85:\n        /* \"contracts/nft-market.sol\":5194:5195  0 */\n      0x00\n        /* \"contracts/nft-market.sol\":5185:5191  _price */\n      dup2\n        /* \"contracts/nft-market.sol\":5185:5195  _price > 0 */\n      gt\n        /* \"contracts/nft-market.sol\":5177:5239  require(_price > 0, \"Market: Price must be greater than zero\") */\n      tag_187\n      jumpi\n      mload(0x40)\n      shl(0xe5, 0x461bcd)\n      dup2\n      mstore\n        /* \"#utility.yul\":9568:9570   */\n      0x20\n        /* \"contracts/nft-market.sol\":5177:5239  require(_price > 0, \"Market: Price must be greater than zero\") */\n      0x04\n      dup3\n      add\n        /* \"#utility.yul\":9550:9571   */\n      mstore\n        /* \"#utility.yul\":9607:9609   */\n      0x27\n        /* \"#utility.yul\":9587:9605   */\n      0x24\n      dup3\n      add\n        /* \"#utility.yul\":9580:9610   */\n      mstore\n        /* \"#utility.yul\":9646:9680   */\n      0x4d61726b65743a205072696365206d7573742062652067726561746572207468\n        /* \"#utility.yul\":9626:9644   */\n      0x44\n      dup3\n      add\n        /* \"#utility.yul\":9619:9681   */\n      mstore\n      shl(0xc8, 0x616e207a65726f)\n        /* \"#utility.yul\":9697:9715   */\n      0x64\n      dup3\n      add\n        /* \"#utility.yul\":9690:9727   */\n      mstore\n        /* \"#utility.yul\":9744:9763   */\n      0x84\n      add\n        /* \"contracts/nft-market.sol\":5177:5239  require(_price > 0, \"Market: Price must be greater than zero\") */\n      tag_81\n        /* \"#utility.yul\":9366:9769   */\n      jump\n        /* \"contracts/nft-market.sol\":5177:5239  require(_price > 0, \"Market: Price must be greater than zero\") */\n    tag_187:\n        /* \"contracts/nft-market.sol\":5250:5269  orderOfId[_tokenId] */\n      0x00\n      dup3\n      dup2\n      mstore\n        /* \"contracts/nft-market.sol\":5250:5259  orderOfId */\n      0x02\n        /* \"contracts/nft-market.sol\":5250:5269  orderOfId[_tokenId] */\n      0x20\n      dup2\n      swap1\n      mstore\n      0x40\n      dup3\n      keccak256\n        /* \"contracts/nft-market.sol\":5250:5286  orderOfId[_tokenId].seller = _seller */\n      dup1\n      sload\n      sub(shl(0xa0, 0x01), 0x01)\n      dup1\n      dup9\n      and\n      not(sub(shl(0xa0, 0x01), 0x01))\n      swap3\n      dup4\n      and\n      or\n      dup4\n      sstore\n        /* \"contracts/nft-market.sol\":5296:5321  orderOfId[_tokenId].price */\n      swap3\n      dup3\n      add\n        /* \"contracts/nft-market.sol\":5296:5330  orderOfId[_tokenId].price = _price */\n      dup6\n      dup2\n      sstore\n        /* \"contracts/nft-market.sol\":5250:5286  orderOfId[_tokenId].seller = _seller */\n      0x01\n        /* \"contracts/nft-market.sol\":5340:5367  orderOfId[_tokenId].tokenId */\n      dup1\n      dup5\n      add\n        /* \"contracts/nft-market.sol\":5340:5378  orderOfId[_tokenId].tokenId = _tokenId */\n      dup9\n      dup2\n      sstore\n        /* \"contracts/nft-market.sol\":5389:5395  orders */\n      0x03\n        /* \"contracts/nft-market.sol\":5389:5421  orders.push(orderOfId[_tokenId]) */\n      dup1\n      sload\n      dup1\n      dup5\n      add\n      dup3\n      sstore\n      swap8\n      dup2\n      swap1\n      mstore\n      swap5\n      sload\n      swap7\n      dup6\n      mul\n      0xc2575a0e9e593c00f959f8c92f12db2869c3395a3b0502d05e2516446f71f85b\n      dup2\n      add\n      dup1\n      sload\n      swap1\n      swap6\n      and\n      swap8\n      swap1\n      swap7\n      and\n      swap7\n      swap1\n      swap7\n      or\n      swap1\n      swap3\n      sstore\n      swap4\n      sload\n      0xc2575a0e9e593c00f959f8c92f12db2869c3395a3b0502d05e2516446f71f85c\n      dup5\n      add\n      sstore\n      swap3\n      sload\n      0xc2575a0e9e593c00f959f8c92f12db2869c3395a3b0502d05e2516446f71f85d\n      swap1\n      swap3\n      add\n      swap2\n      swap1\n      swap2\n      sstore\n        /* \"contracts/nft-market.sol\":5458:5471  orders.length */\n      sload\n        /* \"contracts/nft-market.sol\":5458:5475  orders.length - 1 */\n      tag_191\n      swap2\n        /* \"contracts/nft-market.sol\":5250:5286  orderOfId[_tokenId].seller = _seller */\n      swap1\n        /* \"contracts/nft-market.sol\":5458:5475  orders.length - 1 */\n      tag_192\n      jump\t// in\n    tag_191:\n        /* \"contracts/nft-market.sol\":5431:5455  idToOrderIndex[_tokenId] */\n      0x00\n      dup4\n      dup2\n      mstore\n        /* \"contracts/nft-market.sol\":5431:5445  idToOrderIndex */\n      0x04\n        /* \"contracts/nft-market.sol\":5431:5455  idToOrderIndex[_tokenId] */\n      0x20\n      swap1\n      dup2\n      mstore\n      0x40\n      swap2\n      dup3\n      swap1\n      keccak256\n        /* \"contracts/nft-market.sol\":5431:5475  idToOrderIndex[_tokenId] = orders.length - 1 */\n      swap3\n      swap1\n      swap3\n      sstore\n        /* \"contracts/nft-market.sol\":5491:5526  NewOrder(_seller, _tokenId, _price) */\n      dup1\n      mload\n      sub(shl(0xa0, 0x01), 0x01)\n        /* \"#utility.yul\":1617:1649   */\n      dup7\n      and\n        /* \"#utility.yul\":1599:1650   */\n      dup2\n      mstore\n        /* \"#utility.yul\":1666:1684   */\n      swap2\n      dup3\n      add\n        /* \"#utility.yul\":1659:1693   */\n      dup5\n      swap1\n      mstore\n        /* \"#utility.yul\":1709:1727   */\n      dup2\n      add\n        /* \"#utility.yul\":1702:1736   */\n      dup3\n      swap1\n      mstore\n        /* \"contracts/nft-market.sol\":5491:5526  NewOrder(_seller, _tokenId, _price) */\n      0xd5b509e657d5ec37ae4bdcab658b7340c0453bb630516d26623359a34c1cecf3\n      swap1\n        /* \"#utility.yul\":1587:1589   */\n      0x60\n        /* \"#utility.yul\":1572:1590   */\n      add\n        /* \"contracts/nft-market.sol\":5491:5526  NewOrder(_seller, _tokenId, _price) */\n      mload(0x40)\n      dup1\n      swap2\n      sub\n      swap1\n      log1\n        /* \"contracts/nft-market.sol\":5057:5533  function placeOrder(... */\n      pop\n      pop\n      pop\n      jump\t// out\n        /* \"contracts/nft-market.sol\":5539:6015  function removeListing(uint256 _tokenId) internal {... */\n    tag_100:\n        /* \"contracts/nft-market.sol\":5606:5625  orderOfId[_tokenId] */\n      0x00\n      dup2\n      dup2\n      mstore\n        /* \"contracts/nft-market.sol\":5606:5615  orderOfId */\n      0x02\n        /* \"contracts/nft-market.sol\":5606:5625  orderOfId[_tokenId] */\n      0x20\n      dup2\n      dup2\n      mstore\n      0x40\n      dup1\n      dup5\n      keccak256\n        /* \"contracts/nft-market.sol\":5599:5625  delete orderOfId[_tokenId] */\n      dup1\n      sload\n      not(sub(shl(0xa0, 0x01), 0x01))\n      and\n      dup2\n      sstore\n      0x01\n      dup1\n      dup3\n      add\n      dup7\n      swap1\n      sstore\n      swap4\n      add\n      dup5\n      swap1\n      sstore\n        /* \"contracts/nft-market.sol\":5665:5679  idToOrderIndex */\n      0x04\n        /* \"contracts/nft-market.sol\":5665:5689  idToOrderIndex[_tokenId] */\n      swap1\n      swap2\n      mstore\n      dup3\n      keccak256\n      sload\n        /* \"contracts/nft-market.sol\":5724:5730  orders */\n      0x03\n        /* \"contracts/nft-market.sol\":5724:5737  orders.length */\n      sload\n        /* \"contracts/nft-market.sol\":5665:5689  idToOrderIndex[_tokenId] */\n      swap1\n      swap3\n        /* \"contracts/nft-market.sol\":5606:5625  orderOfId[_tokenId] */\n      swap2\n        /* \"contracts/nft-market.sol\":5724:5741  orders.length - 1 */\n      tag_195\n      swap2\n      tag_192\n      jump\t// in\n    tag_195:\n        /* \"contracts/nft-market.sol\":5699:5741  uint256 lastOrderIndex = orders.length - 1 */\n      swap1\n      pop\n        /* \"contracts/nft-market.sol\":5774:5792  orderToRemoveIndex */\n      dup2\n        /* \"contracts/nft-market.sol\":5756:5770  lastOrderIndex */\n      dup2\n        /* \"contracts/nft-market.sol\":5756:5792  lastOrderIndex != orderToRemoveIndex */\n      eq\n        /* \"contracts/nft-market.sol\":5752:5986  if (lastOrderIndex != orderToRemoveIndex) {... */\n      tag_196\n      jumpi\n        /* \"contracts/nft-market.sol\":5808:5830  Order memory lastOrder */\n      0x00\n        /* \"contracts/nft-market.sol\":5833:5839  orders */\n      0x03\n        /* \"contracts/nft-market.sol\":5840:5854  lastOrderIndex */\n      dup3\n        /* \"contracts/nft-market.sol\":5833:5855  orders[lastOrderIndex] */\n      dup2\n      sload\n      dup2\n      lt\n      tag_198\n      jumpi\n      tag_198\n      tag_116\n      jump\t// in\n    tag_198:\n      0x00\n      swap2\n      dup3\n      mstore\n      0x20\n      swap2\n      dup3\n      swap1\n      keccak256\n        /* \"contracts/nft-market.sol\":5808:5855  Order memory lastOrder = orders[lastOrderIndex] */\n      0x40\n      dup1\n      mload\n      0x60\n      dup2\n      add\n      dup3\n      mstore\n        /* \"contracts/nft-market.sol\":5833:5855  orders[lastOrderIndex] */\n      0x03\n      swap4\n      dup5\n      mul\n      swap1\n      swap3\n      add\n        /* \"contracts/nft-market.sol\":5808:5855  Order memory lastOrder = orders[lastOrderIndex] */\n      dup1\n      sload\n      sub(shl(0xa0, 0x01), 0x01)\n      and\n      dup4\n      mstore\n      0x01\n      dup2\n      add\n      sload\n      swap5\n      dup4\n      add\n      swap5\n      swap1\n      swap5\n      mstore\n      0x02\n      swap1\n      swap4\n      add\n      sload\n      swap3\n      dup2\n      add\n      swap3\n      swap1\n      swap3\n      mstore\n        /* \"contracts/nft-market.sol\":5869:5895  orders[orderToRemoveIndex] */\n      dup1\n      sload\n        /* \"contracts/nft-market.sol\":5808:5855  Order memory lastOrder = orders[lastOrderIndex] */\n      swap2\n      swap3\n      pop\n      dup3\n      swap2\n        /* \"contracts/nft-market.sol\":5876:5894  orderToRemoveIndex */\n      dup6\n      swap1\n        /* \"contracts/nft-market.sol\":5869:5895  orders[orderToRemoveIndex] */\n      dup2\n      lt\n      tag_201\n      jumpi\n      tag_201\n      tag_116\n      jump\t// in\n    tag_201:\n      0x00\n      swap2\n      dup3\n      mstore\n      0x20\n      dup1\n      dup4\n      keccak256\n        /* \"contracts/nft-market.sol\":5869:5907  orders[orderToRemoveIndex] = lastOrder */\n      dup5\n      mload\n        /* \"contracts/nft-market.sol\":5869:5895  orders[orderToRemoveIndex] */\n      0x03\n      swap4\n      swap1\n      swap4\n      mul\n      add\n        /* \"contracts/nft-market.sol\":5869:5907  orders[orderToRemoveIndex] = lastOrder */\n      dup1\n      sload\n      not(sub(shl(0xa0, 0x01), 0x01))\n      and\n      sub(shl(0xa0, 0x01), 0x01)\n      swap1\n      swap4\n      and\n      swap3\n      swap1\n      swap3\n      or\n      dup3\n      sstore\n      dup4\n      dup2\n      add\n      mload\n      0x01\n      dup4\n      add\n      sstore\n      0x40\n      swap4\n      dup5\n      add\n      mload\n      0x02\n      swap1\n      swap3\n      add\n      swap2\n      swap1\n      swap2\n      sstore\n        /* \"contracts/nft-market.sol\":5936:5953  lastOrder.tokenId */\n      swap3\n      dup4\n      add\n      mload\n        /* \"contracts/nft-market.sol\":5921:5954  idToOrderIndex[lastOrder.tokenId] */\n      dup2\n      mstore\n        /* \"contracts/nft-market.sol\":5921:5935  idToOrderIndex */\n      0x04\n        /* \"contracts/nft-market.sol\":5921:5954  idToOrderIndex[lastOrder.tokenId] */\n      swap1\n      swap3\n      mstore\n      swap1\n      keccak256\n        /* \"contracts/nft-market.sol\":5921:5975  idToOrderIndex[lastOrder.tokenId] = orderToRemoveIndex */\n      dup3\n      swap1\n      sstore\n        /* \"contracts/nft-market.sol\":5752:5986  if (lastOrderIndex != orderToRemoveIndex) {... */\n    tag_196:\n        /* \"contracts/nft-market.sol\":5996:6002  orders */\n      0x03\n        /* \"contracts/nft-market.sol\":5996:6008  orders.pop() */\n      dup1\n      sload\n      dup1\n      tag_204\n      jumpi\n      tag_204\n      tag_205\n      jump\t// in\n    tag_204:\n      0x00\n      dup3\n      dup2\n      mstore\n      0x20\n      dup2\n      keccak256\n      0x03\n      not(0x00)\n      swap1\n      swap4\n      add\n      swap3\n      dup4\n      mul\n      add\n      dup1\n      sload\n      not(sub(shl(0xa0, 0x01), 0x01))\n      and\n      dup2\n      sstore\n      0x01\n      dup2\n      add\n      dup3\n      swap1\n      sstore\n      0x02\n      add\n      sstore\n      swap1\n      sstore\n      pop\n      pop\n      pop\n        /* \"contracts/nft-market.sol\":5539:6015  function removeListing(uint256 _tokenId) internal {... */\n      jump\t// out\n        /* \"#utility.yul\":14:187   */\n    tag_207:\n        /* \"#utility.yul\":82:102   */\n      dup1\n      calldataload\n      sub(shl(0xa0, 0x01), 0x01)\n        /* \"#utility.yul\":131:162   */\n      dup2\n      and\n        /* \"#utility.yul\":121:163   */\n      dup2\n      eq\n        /* \"#utility.yul\":111:181   */\n      tag_211\n      jumpi\n        /* \"#utility.yul\":177:178   */\n      0x00\n        /* \"#utility.yul\":174:175   */\n      dup1\n        /* \"#utility.yul\":167:179   */\n      revert\n        /* \"#utility.yul\":111:181   */\n    tag_211:\n        /* \"#utility.yul\":14:187   */\n      swap2\n      swap1\n      pop\n      jump\t// out\n        /* \"#utility.yul\":192:1000   */\n    tag_22:\n        /* \"#utility.yul\":289:295   */\n      0x00\n        /* \"#utility.yul\":297:303   */\n      dup1\n        /* \"#utility.yul\":305:311   */\n      0x00\n        /* \"#utility.yul\":313:319   */\n      dup1\n        /* \"#utility.yul\":321:327   */\n      0x00\n        /* \"#utility.yul\":374:377   */\n      0x80\n        /* \"#utility.yul\":362:371   */\n      dup7\n        /* \"#utility.yul\":353:360   */\n      dup9\n        /* \"#utility.yul\":349:372   */\n      sub\n        /* \"#utility.yul\":345:378   */\n      slt\n        /* \"#utility.yul\":342:395   */\n      iszero\n      tag_213\n      jumpi\n        /* \"#utility.yul\":391:392   */\n      0x00\n        /* \"#utility.yul\":388:389   */\n      dup1\n        /* \"#utility.yul\":381:393   */\n      revert\n        /* \"#utility.yul\":342:395   */\n    tag_213:\n        /* \"#utility.yul\":414:443   */\n      tag_214\n        /* \"#utility.yul\":433:442   */\n      dup7\n        /* \"#utility.yul\":414:443   */\n      tag_207\n      jump\t// in\n    tag_214:\n        /* \"#utility.yul\":404:443   */\n      swap5\n      pop\n        /* \"#utility.yul\":462:500   */\n      tag_215\n        /* \"#utility.yul\":496:498   */\n      0x20\n        /* \"#utility.yul\":485:494   */\n      dup8\n        /* \"#utility.yul\":481:499   */\n      add\n        /* \"#utility.yul\":462:500   */\n      tag_207\n      jump\t// in\n    tag_215:\n        /* \"#utility.yul\":452:500   */\n      swap4\n      pop\n        /* \"#utility.yul\":547:549   */\n      0x40\n        /* \"#utility.yul\":536:545   */\n      dup7\n        /* \"#utility.yul\":532:550   */\n      add\n        /* \"#utility.yul\":519:551   */\n      calldataload\n        /* \"#utility.yul\":509:551   */\n      swap3\n      pop\n        /* \"#utility.yul\":602:604   */\n      0x60\n        /* \"#utility.yul\":591:600   */\n      dup7\n        /* \"#utility.yul\":587:605   */\n      add\n        /* \"#utility.yul\":574:606   */\n      calldataload\n        /* \"#utility.yul\":625:643   */\n      0xffffffffffffffff\n        /* \"#utility.yul\":666:668   */\n      dup1\n        /* \"#utility.yul\":658:664   */\n      dup3\n        /* \"#utility.yul\":655:669   */\n      gt\n        /* \"#utility.yul\":652:686   */\n      iszero\n      tag_216\n      jumpi\n        /* \"#utility.yul\":682:683   */\n      0x00\n        /* \"#utility.yul\":679:680   */\n      dup1\n        /* \"#utility.yul\":672:684   */\n      revert\n        /* \"#utility.yul\":652:686   */\n    tag_216:\n        /* \"#utility.yul\":720:726   */\n      dup2\n        /* \"#utility.yul\":709:718   */\n      dup9\n        /* \"#utility.yul\":705:727   */\n      add\n        /* \"#utility.yul\":695:727   */\n      swap2\n      pop\n        /* \"#utility.yul\":765:772   */\n      dup9\n        /* \"#utility.yul\":758:762   */\n      0x1f\n        /* \"#utility.yul\":754:756   */\n      dup4\n        /* \"#utility.yul\":750:763   */\n      add\n        /* \"#utility.yul\":746:773   */\n      slt\n        /* \"#utility.yul\":736:791   */\n      tag_217\n      jumpi\n        /* \"#utility.yul\":787:788   */\n      0x00\n        /* \"#utility.yul\":784:785   */\n      dup1\n        /* \"#utility.yul\":777:789   */\n      revert\n        /* \"#utility.yul\":736:791   */\n    tag_217:\n        /* \"#utility.yul\":827:829   */\n      dup2\n        /* \"#utility.yul\":814:830   */\n      calldataload\n        /* \"#utility.yul\":853:855   */\n      dup2\n        /* \"#utility.yul\":845:851   */\n      dup2\n        /* \"#utility.yul\":842:856   */\n      gt\n        /* \"#utility.yul\":839:873   */\n      iszero\n      tag_218\n      jumpi\n        /* \"#utility.yul\":869:870   */\n      0x00\n        /* \"#utility.yul\":866:867   */\n      dup1\n        /* \"#utility.yul\":859:871   */\n      revert\n        /* \"#utility.yul\":839:873   */\n    tag_218:\n        /* \"#utility.yul\":914:921   */\n      dup10\n        /* \"#utility.yul\":909:911   */\n      0x20\n        /* \"#utility.yul\":900:906   */\n      dup3\n        /* \"#utility.yul\":896:898   */\n      dup6\n        /* \"#utility.yul\":892:907   */\n      add\n        /* \"#utility.yul\":888:912   */\n      add\n        /* \"#utility.yul\":885:922   */\n      gt\n        /* \"#utility.yul\":882:939   */\n      iszero\n      tag_219\n      jumpi\n        /* \"#utility.yul\":935:936   */\n      0x00\n        /* \"#utility.yul\":932:933   */\n      dup1\n        /* \"#utility.yul\":925:937   */\n      revert\n        /* \"#utility.yul\":882:939   */\n    tag_219:\n        /* \"#utility.yul\":192:1000   */\n      swap7\n      swap10\n      swap6\n      swap9\n      pop\n      swap4\n      swap7\n      pop\n        /* \"#utility.yul\":966:968   */\n      0x20\n        /* \"#utility.yul\":958:969   */\n      add\n      swap5\n        /* \"#utility.yul\":988:994   */\n      swap4\n        /* \"#utility.yul\":192:1000   */\n      swap3\n      pop\n      pop\n      pop\n      jump\t// out\n        /* \"#utility.yul\":1212:1392   */\n    tag_28:\n        /* \"#utility.yul\":1271:1277   */\n      0x00\n        /* \"#utility.yul\":1324:1326   */\n      0x20\n        /* \"#utility.yul\":1312:1321   */\n      dup3\n        /* \"#utility.yul\":1303:1310   */\n      dup5\n        /* \"#utility.yul\":1299:1322   */\n      sub\n        /* \"#utility.yul\":1295:1327   */\n      slt\n        /* \"#utility.yul\":1292:1344   */\n      iszero\n      tag_222\n      jumpi\n        /* \"#utility.yul\":1340:1341   */\n      0x00\n        /* \"#utility.yul\":1337:1338   */\n      dup1\n        /* \"#utility.yul\":1330:1342   */\n      revert\n        /* \"#utility.yul\":1292:1344   */\n    tag_222:\n      pop\n        /* \"#utility.yul\":1363:1386   */\n      calldataload\n      swap2\n        /* \"#utility.yul\":1212:1392   */\n      swap1\n      pop\n      jump\t// out\n        /* \"#utility.yul\":1747:2610   */\n    tag_38:\n        /* \"#utility.yul\":1962:1964   */\n      0x20\n        /* \"#utility.yul\":2014:2035   */\n      dup1\n      dup3\n      mstore\n        /* \"#utility.yul\":2084:2097   */\n      dup3\n      mload\n        /* \"#utility.yul\":1987:2005   */\n      dup3\n      dup3\n      add\n        /* \"#utility.yul\":2106:2128   */\n      dup2\n      swap1\n      mstore\n        /* \"#utility.yul\":1933:1937   */\n      0x00\n      swap2\n        /* \"#utility.yul\":1962:1964   */\n      swap1\n        /* \"#utility.yul\":2147:2149   */\n      0x40\n      swap1\n        /* \"#utility.yul\":2165:2183   */\n      dup2\n      dup6\n      add\n      swap1\n        /* \"#utility.yul\":2206:2221   */\n      dup7\n      dup5\n      add\n        /* \"#utility.yul\":1933:1937   */\n      dup6\n        /* \"#utility.yul\":2249:2584   */\n    tag_225:\n        /* \"#utility.yul\":2263:2269   */\n      dup3\n        /* \"#utility.yul\":2260:2261   */\n      dup2\n        /* \"#utility.yul\":2257:2270   */\n      lt\n        /* \"#utility.yul\":2249:2584   */\n      iszero\n      tag_227\n      jumpi\n        /* \"#utility.yul\":2322:2335   */\n      dup2\n      mload\n        /* \"#utility.yul\":2364:2373   */\n      dup1\n      mload\n      sub(shl(0xa0, 0x01), 0x01)\n        /* \"#utility.yul\":2360:2395   */\n      and\n        /* \"#utility.yul\":2348:2396   */\n      dup6\n      mstore\n        /* \"#utility.yul\":2436:2447   */\n      dup7\n      dup2\n      add\n        /* \"#utility.yul\":2430:2448   */\n      mload\n        /* \"#utility.yul\":2416:2428   */\n      dup8\n      dup7\n      add\n        /* \"#utility.yul\":2409:2449   */\n      mstore\n        /* \"#utility.yul\":2489:2500   */\n      dup6\n      add\n        /* \"#utility.yul\":2483:2501   */\n      mload\n        /* \"#utility.yul\":2469:2481   */\n      dup6\n      dup6\n      add\n        /* \"#utility.yul\":2462:2502   */\n      mstore\n        /* \"#utility.yul\":2531:2535   */\n      0x60\n        /* \"#utility.yul\":2522:2536   */\n      swap1\n      swap4\n      add\n      swap3\n        /* \"#utility.yul\":2559:2574   */\n      swap1\n      dup6\n      add\n      swap1\n        /* \"#utility.yul\":2392:2393   */\n      0x01\n        /* \"#utility.yul\":2278:2287   */\n      add\n        /* \"#utility.yul\":2249:2584   */\n      jump(tag_225)\n    tag_227:\n      pop\n        /* \"#utility.yul\":2601:2604   */\n      swap2\n      swap8\n        /* \"#utility.yul\":1747:2610   */\n      swap7\n      pop\n      pop\n      pop\n      pop\n      pop\n      pop\n      pop\n      jump\t// out\n        /* \"#utility.yul\":3018:3266   */\n    tag_53:\n        /* \"#utility.yul\":3086:3092   */\n      0x00\n        /* \"#utility.yul\":3094:3100   */\n      dup1\n        /* \"#utility.yul\":3147:3149   */\n      0x40\n        /* \"#utility.yul\":3135:3144   */\n      dup4\n        /* \"#utility.yul\":3126:3133   */\n      dup6\n        /* \"#utility.yul\":3122:3145   */\n      sub\n        /* \"#utility.yul\":3118:3150   */\n      slt\n        /* \"#utility.yul\":3115:3167   */\n      iszero\n      tag_231\n      jumpi\n        /* \"#utility.yul\":3163:3164   */\n      0x00\n        /* \"#utility.yul\":3160:3161   */\n      dup1\n        /* \"#utility.yul\":3153:3165   */\n      revert\n        /* \"#utility.yul\":3115:3167   */\n    tag_231:\n      pop\n      pop\n        /* \"#utility.yul\":3186:3209   */\n      dup1\n      calldataload\n      swap3\n        /* \"#utility.yul\":3256:3258   */\n      0x20\n        /* \"#utility.yul\":3241:3259   */\n      swap1\n      swap2\n      add\n        /* \"#utility.yul\":3228:3260   */\n      calldataload\n      swap2\n      pop\n        /* \"#utility.yul\":3018:3266   */\n      jump\t// out\n        /* \"#utility.yul\":3271:3398   */\n    tag_106:\n        /* \"#utility.yul\":3332:3342   */\n      0x4e487b71\n        /* \"#utility.yul\":3327:3330   */\n      0xe0\n        /* \"#utility.yul\":3323:3343   */\n      shl\n        /* \"#utility.yul\":3320:3321   */\n      0x00\n        /* \"#utility.yul\":3313:3344   */\n      mstore\n        /* \"#utility.yul\":3363:3367   */\n      0x41\n        /* \"#utility.yul\":3360:3361   */\n      0x04\n        /* \"#utility.yul\":3353:3368   */\n      mstore\n        /* \"#utility.yul\":3387:3391   */\n      0x24\n        /* \"#utility.yul\":3384:3385   */\n      0x00\n        /* \"#utility.yul\":3377:3392   */\n      revert\n        /* \"#utility.yul\":3403:4402   */\n    tag_57:\n        /* \"#utility.yul\":3480:3486   */\n      0x00\n        /* \"#utility.yul\":3488:3494   */\n      dup1\n        /* \"#utility.yul\":3541:3543   */\n      0x40\n        /* \"#utility.yul\":3529:3538   */\n      dup4\n        /* \"#utility.yul\":3520:3527   */\n      dup6\n        /* \"#utility.yul\":3516:3539   */\n      sub\n        /* \"#utility.yul\":3512:3544   */\n      slt\n        /* \"#utility.yul\":3509:3561   */\n      iszero\n      tag_234\n      jumpi\n        /* \"#utility.yul\":3557:3558   */\n      0x00\n        /* \"#utility.yul\":3554:3555   */\n      dup1\n        /* \"#utility.yul\":3547:3559   */\n      revert\n        /* \"#utility.yul\":3509:3561   */\n    tag_234:\n        /* \"#utility.yul\":3597:3606   */\n      dup3\n        /* \"#utility.yul\":3584:3607   */\n      calldataload\n        /* \"#utility.yul\":3626:3644   */\n      0xffffffffffffffff\n        /* \"#utility.yul\":3667:3669   */\n      dup1\n        /* \"#utility.yul\":3659:3665   */\n      dup3\n        /* \"#utility.yul\":3656:3670   */\n      gt\n        /* \"#utility.yul\":3653:3687   */\n      iszero\n      tag_235\n      jumpi\n        /* \"#utility.yul\":3683:3684   */\n      0x00\n        /* \"#utility.yul\":3680:3681   */\n      dup1\n        /* \"#utility.yul\":3673:3685   */\n      revert\n        /* \"#utility.yul\":3653:3687   */\n    tag_235:\n        /* \"#utility.yul\":3721:3727   */\n      dup2\n        /* \"#utility.yul\":3710:3719   */\n      dup6\n        /* \"#utility.yul\":3706:3728   */\n      add\n        /* \"#utility.yul\":3696:3728   */\n      swap2\n      pop\n        /* \"#utility.yul\":3766:3773   */\n      dup6\n        /* \"#utility.yul\":3759:3763   */\n      0x1f\n        /* \"#utility.yul\":3755:3757   */\n      dup4\n        /* \"#utility.yul\":3751:3764   */\n      add\n        /* \"#utility.yul\":3747:3774   */\n      slt\n        /* \"#utility.yul\":3737:3792   */\n      tag_236\n      jumpi\n        /* \"#utility.yul\":3788:3789   */\n      0x00\n        /* \"#utility.yul\":3785:3786   */\n      dup1\n        /* \"#utility.yul\":3778:3790   */\n      revert\n        /* \"#utility.yul\":3737:3792   */\n    tag_236:\n        /* \"#utility.yul\":3824:3826   */\n      dup2\n        /* \"#utility.yul\":3811:3827   */\n      calldataload\n        /* \"#utility.yul\":3846:3848   */\n      dup2\n        /* \"#utility.yul\":3842:3844   */\n      dup2\n        /* \"#utility.yul\":3839:3849   */\n      gt\n        /* \"#utility.yul\":3836:3872   */\n      iszero\n      tag_238\n      jumpi\n        /* \"#utility.yul\":3852:3870   */\n      tag_238\n      tag_106\n      jump\t// in\n    tag_238:\n        /* \"#utility.yul\":3927:3929   */\n      0x40\n        /* \"#utility.yul\":3921:3930   */\n      mload\n        /* \"#utility.yul\":3895:3897   */\n      0x1f\n        /* \"#utility.yul\":3981:3994   */\n      dup3\n      add\n      not(0x1f)\n        /* \"#utility.yul\":3977:3999   */\n      swap1\n      dup2\n      and\n        /* \"#utility.yul\":4001:4003   */\n      0x3f\n        /* \"#utility.yul\":3973:4004   */\n      add\n        /* \"#utility.yul\":3969:4009   */\n      and\n        /* \"#utility.yul\":3957:4010   */\n      dup2\n      add\n      swap1\n        /* \"#utility.yul\":4025:4043   */\n      dup4\n      dup3\n      gt\n        /* \"#utility.yul\":4045:4067   */\n      dup2\n      dup4\n      lt\n        /* \"#utility.yul\":4022:4068   */\n      or\n        /* \"#utility.yul\":4019:4091   */\n      iszero\n      tag_240\n      jumpi\n        /* \"#utility.yul\":4071:4089   */\n      tag_240\n      tag_106\n      jump\t// in\n    tag_240:\n        /* \"#utility.yul\":4111:4121   */\n      dup2\n        /* \"#utility.yul\":4107:4109   */\n      0x40\n        /* \"#utility.yul\":4100:4122   */\n      mstore\n        /* \"#utility.yul\":4146:4148   */\n      dup3\n        /* \"#utility.yul\":4138:4144   */\n      dup2\n        /* \"#utility.yul\":4131:4149   */\n      mstore\n        /* \"#utility.yul\":4188:4195   */\n      dup9\n        /* \"#utility.yul\":4181:4185   */\n      0x20\n        /* \"#utility.yul\":4176:4178   */\n      dup5\n        /* \"#utility.yul\":4172:4174   */\n      dup8\n        /* \"#utility.yul\":4168:4179   */\n      add\n        /* \"#utility.yul\":4164:4186   */\n      add\n        /* \"#utility.yul\":4161:4196   */\n      gt\n        /* \"#utility.yul\":4158:4213   */\n      iszero\n      tag_241\n      jumpi\n        /* \"#utility.yul\":4209:4210   */\n      0x00\n        /* \"#utility.yul\":4206:4207   */\n      dup1\n        /* \"#utility.yul\":4199:4211   */\n      revert\n        /* \"#utility.yul\":4158:4213   */\n    tag_241:\n        /* \"#utility.yul\":4269:4271   */\n      dup3\n        /* \"#utility.yul\":4262:4266   */\n      0x20\n        /* \"#utility.yul\":4258:4260   */\n      dup7\n        /* \"#utility.yul\":4254:4267   */\n      add\n        /* \"#utility.yul\":4247:4251   */\n      0x20\n        /* \"#utility.yul\":4239:4245   */\n      dup4\n        /* \"#utility.yul\":4235:4252   */\n      add\n        /* \"#utility.yul\":4222:4272   */\n      calldatacopy\n        /* \"#utility.yul\":4316:4317   */\n      0x00\n        /* \"#utility.yul\":4309:4313   */\n      0x20\n        /* \"#utility.yul\":4292:4307   */\n      swap4\n      dup3\n      add\n        /* \"#utility.yul\":4288:4314   */\n      dup5\n      add\n        /* \"#utility.yul\":4281:4318   */\n      mstore\n        /* \"#utility.yul\":4292:4307   */\n      swap9\n        /* \"#utility.yul\":4375:4395   */\n      swap7\n      swap1\n      swap2\n      add\n        /* \"#utility.yul\":4362:4396   */\n      calldataload\n      swap7\n      pop\n      pop\n      pop\n      pop\n      pop\n      pop\n        /* \"#utility.yul\":3403:4402   */\n      jump\t// out\n        /* \"#utility.yul\":5182:5536   */\n    tag_90:\n        /* \"#utility.yul\":5384:5386   */\n      0x20\n        /* \"#utility.yul\":5366:5387   */\n      dup1\n      dup3\n      mstore\n        /* \"#utility.yul\":5423:5425   */\n      0x1e\n        /* \"#utility.yul\":5403:5421   */\n      swap1\n      dup3\n      add\n        /* \"#utility.yul\":5396:5426   */\n      mstore\n        /* \"#utility.yul\":5462:5494   */\n      0x4d61726b65743a20546f6b656e204944206973206e6f74206c69737465640000\n        /* \"#utility.yul\":5457:5459   */\n      0x40\n        /* \"#utility.yul\":5442:5460   */\n      dup3\n      add\n        /* \"#utility.yul\":5435:5495   */\n      mstore\n        /* \"#utility.yul\":5527:5529   */\n      0x60\n        /* \"#utility.yul\":5512:5530   */\n      add\n      swap1\n        /* \"#utility.yul\":5182:5536   */\n      jump\t// out\n        /* \"#utility.yul\":6557:6684   */\n    tag_116:\n        /* \"#utility.yul\":6618:6628   */\n      0x4e487b71\n        /* \"#utility.yul\":6613:6616   */\n      0xe0\n        /* \"#utility.yul\":6609:6629   */\n      shl\n        /* \"#utility.yul\":6606:6607   */\n      0x00\n        /* \"#utility.yul\":6599:6630   */\n      mstore\n        /* \"#utility.yul\":6649:6653   */\n      0x32\n        /* \"#utility.yul\":6646:6647   */\n      0x04\n        /* \"#utility.yul\":6639:6654   */\n      mstore\n        /* \"#utility.yul\":6673:6677   */\n      0x24\n        /* \"#utility.yul\":6670:6671   */\n      0x00\n        /* \"#utility.yul\":6663:6678   */\n      revert\n        /* \"#utility.yul\":6689:6816   */\n    tag_208:\n        /* \"#utility.yul\":6750:6760   */\n      0x4e487b71\n        /* \"#utility.yul\":6745:6748   */\n      0xe0\n        /* \"#utility.yul\":6741:6761   */\n      shl\n        /* \"#utility.yul\":6738:6739   */\n      0x00\n        /* \"#utility.yul\":6731:6762   */\n      mstore\n        /* \"#utility.yul\":6781:6785   */\n      0x11\n        /* \"#utility.yul\":6778:6779   */\n      0x04\n        /* \"#utility.yul\":6771:6786   */\n      mstore\n        /* \"#utility.yul\":6805:6809   */\n      0x24\n        /* \"#utility.yul\":6802:6803   */\n      0x00\n        /* \"#utility.yul\":6795:6810   */\n      revert\n        /* \"#utility.yul\":6821:6956   */\n    tag_125:\n        /* \"#utility.yul\":6860:6863   */\n      0x00\n        /* \"#utility.yul\":6881:6898   */\n      0x01\n      dup3\n      add\n        /* \"#utility.yul\":6878:6921   */\n      tag_253\n      jumpi\n        /* \"#utility.yul\":6901:6919   */\n      tag_253\n      tag_208\n      jump\t// in\n    tag_253:\n      pop\n        /* \"#utility.yul\":6948:6949   */\n      0x01\n        /* \"#utility.yul\":6937:6950   */\n      add\n      swap1\n        /* \"#utility.yul\":6821:6956   */\n      jump\t// out\n        /* \"#utility.yul\":7383:7508   */\n    tag_154:\n        /* \"#utility.yul\":7448:7457   */\n      dup1\n      dup3\n      add\n        /* \"#utility.yul\":7469:7479   */\n      dup1\n      dup3\n      gt\n        /* \"#utility.yul\":7466:7502   */\n      iszero\n      tag_152\n      jumpi\n        /* \"#utility.yul\":7482:7500   */\n      tag_152\n      tag_208\n      jump\t// in\n        /* \"#utility.yul\":8226:8503   */\n    tag_170:\n        /* \"#utility.yul\":8293:8299   */\n      0x00\n        /* \"#utility.yul\":8346:8348   */\n      0x20\n        /* \"#utility.yul\":8334:8343   */\n      dup3\n        /* \"#utility.yul\":8325:8332   */\n      dup5\n        /* \"#utility.yul\":8321:8344   */\n      sub\n        /* \"#utility.yul\":8317:8349   */\n      slt\n        /* \"#utility.yul\":8314:8366   */\n      iszero\n      tag_261\n      jumpi\n        /* \"#utility.yul\":8362:8363   */\n      0x00\n        /* \"#utility.yul\":8359:8360   */\n      dup1\n        /* \"#utility.yul\":8352:8364   */\n      revert\n        /* \"#utility.yul\":8314:8366   */\n    tag_261:\n        /* \"#utility.yul\":8394:8403   */\n      dup2\n        /* \"#utility.yul\":8388:8404   */\n      mload\n        /* \"#utility.yul\":8447:8452   */\n      dup1\n        /* \"#utility.yul\":8440:8453   */\n      iszero\n        /* \"#utility.yul\":8433:8454   */\n      iszero\n        /* \"#utility.yul\":8426:8431   */\n      dup2\n        /* \"#utility.yul\":8423:8455   */\n      eq\n        /* \"#utility.yul\":8413:8473   */\n      tag_262\n      jumpi\n        /* \"#utility.yul\":8469:8470   */\n      0x00\n        /* \"#utility.yul\":8466:8467   */\n      dup1\n        /* \"#utility.yul\":8459:8471   */\n      revert\n        /* \"#utility.yul\":8413:8473   */\n    tag_262:\n        /* \"#utility.yul\":8492:8497   */\n      swap4\n        /* \"#utility.yul\":8226:8503   */\n      swap3\n      pop\n      pop\n      pop\n      jump\t// out\n        /* \"#utility.yul\":9774:9902   */\n    tag_192:\n        /* \"#utility.yul\":9841:9850   */\n      dup2\n      dup2\n      sub\n        /* \"#utility.yul\":9862:9873   */\n      dup2\n      dup2\n      gt\n        /* \"#utility.yul\":9859:9896   */\n      iszero\n      tag_152\n      jumpi\n        /* \"#utility.yul\":9876:9894   */\n      tag_152\n      tag_208\n      jump\t// in\n        /* \"#utility.yul\":9907:10034   */\n    tag_205:\n        /* \"#utility.yul\":9968:9978   */\n      0x4e487b71\n        /* \"#utility.yul\":9963:9966   */\n      0xe0\n        /* \"#utility.yul\":9959:9979   */\n      shl\n        /* \"#utility.yul\":9956:9957   */\n      0x00\n        /* \"#utility.yul\":9949:9980   */\n      mstore\n        /* \"#utility.yul\":9999:10003   */\n      0x31\n        /* \"#utility.yul\":9996:9997   */\n      0x04\n        /* \"#utility.yul\":9989:10004   */\n      mstore\n        /* \"#utility.yul\":10023:10027   */\n      0x24\n        /* \"#utility.yul\":10020:10021   */\n      0x00\n        /* \"#utility.yul\":10013:10028   */\n      revert\n\n    auxdata: 0xa2646970667358221220fd885126d71c88b6b69fea86894ee5c204016d1e1412cf95325ed802b529c74d64736f6c63430008160033\n}\n",
				"bytecode": {
					"linkReferences": {},
					"object": "608060405234801561000f575f80fd5b506040516200131d3803806200131d8339810160408190526100309161015b565b6001600160a01b0382166100a45760405162461bcd60e51b815260206004820152603060248201527f4d61726b65743a2049455243323020636f6e747261637420616464726573732060448201526f1b5d5cdd081899481b9bdb8b5b9d5b1b60821b60648201526084015b60405180910390fd5b6001600160a01b0381166101145760405162461bcd60e51b815260206004820152603160248201527f4d61726b65743a204945524337323120636f6e74726163742061646472657373604482015270081b5d5cdd081899481b9bdb8b5b9d5b1b607a1b606482015260840161009b565b5f80546001600160a01b039384166001600160a01b03199182161790915560018054929093169116179055610193565b6001600160a01b0381168114610158575f80fd5b50565b5f806040838503121561016c575f80fd5b825161017781610144565b602084015190925061018881610144565b809150509250929050565b61117c80620001a15f395ff3fe608060405234801561000f575f80fd5b50600436106100e5575f3560e01c8063b3de019c11610088578063d96a094a11610063578063d96a094a1461022a578063da694df01461023d578063e0391b091461025c578063fcce488314610264575f80fd5b8063b3de019c146101f1578063b5cdf92414610204578063bca6ce6414610217575f80fd5b8063629cb2e4116100c3578063629cb2e41461018d578063785e9e86146101a25780639d4971b7146101cc578063a85c38ef146101de575f80fd5b8063150b7a02146100e9578063394a90771461011a578063514fcac714610178575b5f80fd5b6100fc6100f7366004610e81565b61029e565b6040516001600160e01b031990911681526020015b60405180910390f35b610153610128366004610f14565b600260208190525f91825260409091208054600182015491909201546001600160a01b039092169183565b604080516001600160a01b039094168452602084019290925290820152606001610111565b61018b610186366004610f14565b610364565b005b6101956104b3565b6040516101119190610f2b565b5f546101b4906001600160a01b031681565b6040516001600160a01b039091168152602001610111565b6003545b604051908152602001610111565b6101536101ec366004610f14565b6106ce565b61018b6101ff366004610f8c565b610709565b6101d0610212366004610fc0565b61084c565b6001546101b4906001600160a01b031681565b61018b610238366004610f14565b610911565b6101d061024b366004610f14565b60046020525f908152604090205481565b610195610afa565b61028e610272366004610f14565b5f908152600260205260409020546001600160a01b0316151590565b6040519015158152602001610111565b5f846001600160a01b0316866001600160a01b0316146103055760405162461bcd60e51b815260206004820152601f60248201527f4d61726b65743a2053656c6c6572206d757374206265206f70657261746f720060448201526064015b60405180910390fd5b5f61034484848080601f0160208091040260200160405190810160405280939291908181526020018383808284375f920182905250925061084c915050565b9050610351868683610b7a565b50630a85bd0160e11b9695505050505050565b5f818152600260205260409020546001600160a01b03166103975760405162461bcd60e51b81526004016102fc9061106f565b5f818152600260205260409020546001600160a01b03163381146103fd5760405162461bcd60e51b815260206004820152601c60248201527f4d61726b65743a2053656e646572206973206e6f742073656c6c65720000000060448201526064016102fc565b600154604051632142170760e11b81523060048201526001600160a01b03838116602483015260448201859052909116906342842e0e906064015f604051808303815f87803b15801561044e575f80fd5b505af1158015610460573d5f803e3d5ffd5b5050505061046d82610d12565b604080516001600160a01b0383168152602081018490527fc0e68d6b69f741c21e955cad2ae4d505b6f6735c7e7b278251b3f6283a5f07eb910160405180910390a15050565b6003546060905f9067ffffffffffffffff8111156104d3576104d3610fac565b60405190808252806020026020018201604052801561052e57816020015b61051b60405180606001604052805f6001600160a01b031681526020015f81526020015f81525090565b8152602001906001900390816104f15790505b5090505f805b60035481101561060457336001600160a01b03166003828154811061055b5761055b6110a6565b5f9182526020909120600390910201546001600160a01b0316036105fc576003818154811061058c5761058c6110a6565b5f91825260209182902060408051606081018252600390930290910180546001600160a01b031683526001810154938301939093526002909201549181019190915283518490849081106105e2576105e26110a6565b602002602001018190525081806105f8906110ce565b9250505b600101610534565b505f8167ffffffffffffffff81111561061f5761061f610fac565b60405190808252806020026020018201604052801561067a57816020015b61066760405180606001604052805f6001600160a01b031681526020015f81526020015f81525090565b81526020019060019003908161063d5790505b5090505f5b828110156106c657838181518110610699576106996110a6565b60200260200101518282815181106106b3576106b36110a6565b602090810291909101015260010161067f565b509392505050565b600381815481106106dd575f80fd5b5f9182526020909120600390910201805460018201546002909201546001600160a01b03909116925083565b5f828152600260205260409020546001600160a01b031661073c5760405162461bcd60e51b81526004016102fc9061106f565b5f828152600260205260409020546001600160a01b03163381146107a25760405162461bcd60e51b815260206004820152601c60248201527f4d61726b65743a2053656e646572206973206e6f742073656c6c65720000000060448201526064016102fc565b5f8381526002602081815260408084209092018054908690556004909152908220546003805492939290919081106107dc576107dc6110a6565b5f9182526020918290206002600390920201908101869055604080516001600160a01b038716815292830188905282018490526060820186905291507f342a7f6248980b0f191b96eb6b7a439c4da78b2c97b86ca66cc7ee90d4b04cce9060800160405180910390a15050505050565b5f816108598160206110e6565b10156108a75760405162461bcd60e51b815260206004820152601a60248201527f4d61726b65743a20746f55696e743235365f6f766572666c6f7700000000000060448201526064016102fc565b6108b28260206110e6565b835110156109025760405162461bcd60e51b815260206004820152601d60248201527f4d61726b65743a20746f55696e743235365f6f75744f66426f756e647300000060448201526064016102fc565b50818101602001515b92915050565b5f818152600260205260409020546001600160a01b03166109445760405162461bcd60e51b81526004016102fc9061106f565b5f8181526002602081905260408083208054920154925490516323b872dd60e01b815233600482018190526001600160a01b039384166024830181905260448301869052949093909216906323b872dd906064016020604051808303815f875af11580156109b4573d5f803e3d5ffd5b505050506040513d601f19601f820116820180604052508101906109d891906110f9565b610a325760405162461bcd60e51b815260206004820152602560248201527f4d61726b65743a204552433230207472616e73666572206e6f742073756363656044820152641cdcd99d5b60da1b60648201526084016102fc565b600154604051632142170760e11b81523060048201526001600160a01b03848116602483015260448201879052909116906342842e0e906064015f604051808303815f87803b158015610a83575f80fd5b505af1158015610a95573d5f803e3d5ffd5b50505050610aa284610d12565b604080516001600160a01b03808516825285166020820152908101859052606081018290527f424d5e5f0192c7dacdbe646ca31b00299146d883d76a95ef5cddbac7cd342eab9060800160405180910390a150505050565b60606003805480602002602001604051908101604052809291908181526020015f905b82821015610b71575f848152602090819020604080516060810182526003860290920180546001600160a01b0316835260018082015484860152600290910154918301919091529083529092019101610b1d565b50505050905090565b5f8111610bd95760405162461bcd60e51b815260206004820152602760248201527f4d61726b65743a205072696365206d7573742062652067726561746572207468604482015266616e207a65726f60c81b60648201526084016102fc565b5f828152600260208190526040822080546001600160a01b038088166001600160a01b031992831617835592820185815560018084018881556003805480840182559781905294549685027fc2575a0e9e593c00f959f8c92f12db2869c3395a3b0502d05e2516446f71f85b81018054909516979096169690961790925593547fc2575a0e9e593c00f959f8c92f12db2869c3395a3b0502d05e2516446f71f85c84015592547fc2575a0e9e593c00f959f8c92f12db2869c3395a3b0502d05e2516446f71f85d9092019190915554610cb2919061111f565b5f838152600460209081526040918290209290925580516001600160a01b038616815291820184905281018290527fd5b509e657d5ec37ae4bdcab658b7340c0453bb630516d26623359a34c1cecf39060600160405180910390a1505050565b5f81815260026020818152604080842080546001600160a01b0319168155600180820186905593018490556004909152822054600354909291610d549161111f565b9050818114610e22575f60038281548110610d7157610d716110a6565b5f91825260209182902060408051606081018252600393840290920180546001600160a01b03168352600181015494830194909452600290930154928101929092528054919250829185908110610dca57610dca6110a6565b5f918252602080832084516003939093020180546001600160a01b0319166001600160a01b03909316929092178255838101516001830155604093840151600290920191909155928301518152600490925290208290555b6003805480610e3357610e33611132565b5f8281526020812060035f199093019283020180546001600160a01b031916815560018101829055600201559055505050565b80356001600160a01b0381168114610e7c575f80fd5b919050565b5f805f805f60808688031215610e95575f80fd5b610e9e86610e66565b9450610eac60208701610e66565b935060408601359250606086013567ffffffffffffffff80821115610ecf575f80fd5b818801915088601f830112610ee2575f80fd5b813581811115610ef0575f80fd5b896020828501011115610f01575f80fd5b9699959850939650602001949392505050565b5f60208284031215610f24575f80fd5b5035919050565b602080825282518282018190525f919060409081850190868401855b82811015610f7f57815180516001600160a01b0316855286810151878601528501518585015260609093019290850190600101610f47565b5091979650505050505050565b5f8060408385031215610f9d575f80fd5b50508035926020909101359150565b634e487b7160e01b5f52604160045260245ffd5b5f8060408385031215610fd1575f80fd5b823567ffffffffffffffff80821115610fe8575f80fd5b818501915085601f830112610ffb575f80fd5b81358181111561100d5761100d610fac565b604051601f8201601f19908116603f0116810190838211818310171561103557611035610fac565b8160405282815288602084870101111561104d575f80fd5b826020860160208301375f602093820184015298969091013596505050505050565b6020808252601e908201527f4d61726b65743a20546f6b656e204944206973206e6f74206c69737465640000604082015260600190565b634e487b7160e01b5f52603260045260245ffd5b634e487b7160e01b5f52601160045260245ffd5b5f600182016110df576110df6110ba565b5060010190565b8082018082111561090b5761090b6110ba565b5f60208284031215611109575f80fd5b81518015158114611118575f80fd5b9392505050565b8181038181111561090b5761090b6110ba565b634e487b7160e01b5f52603160045260245ffdfea2646970667358221220fd885126d71c88b6b69fea86894ee5c204016d1e1412cf95325ed802b529c74d64736f6c63430008160033",
					"opcodes": "PUSH1 0x80 PUSH1 0x40 MSTORE CALLVALUE DUP1 ISZERO PUSH2 0xF JUMPI PUSH0 DUP1 REVERT JUMPDEST POP PUSH1 0x40 MLOAD PUSH3 0x131D CODESIZE SUB DUP1 PUSH3 0x131D DUP4 CODECOPY DUP2 ADD PUSH1 0x40 DUP2 SWAP1 MSTORE PUSH2 0x30 SWAP2 PUSH2 0x15B JUMP JUMPDEST PUSH1 0x1 PUSH1 0x1 PUSH1 0xA0 SHL SUB DUP3 AND PUSH2 0xA4 JUMPI PUSH1 0x40 MLOAD PUSH3 0x461BCD PUSH1 0xE5 SHL DUP2 MSTORE PUSH1 0x20 PUSH1 0x4 DUP3 ADD MSTORE PUSH1 0x30 PUSH1 0x24 DUP3 ADD MSTORE PUSH32 0x4D61726B65743A2049455243323020636F6E7472616374206164647265737320 PUSH1 0x44 DUP3 ADD MSTORE PUSH16 0x1B5D5CDD081899481B9BDB8B5B9D5B1B PUSH1 0x82 SHL PUSH1 0x64 DUP3 ADD MSTORE PUSH1 0x84 ADD JUMPDEST PUSH1 0x40 MLOAD DUP1 SWAP2 SUB SWAP1 REVERT JUMPDEST PUSH1 0x1 PUSH1 0x1 PUSH1 0xA0 SHL SUB DUP2 AND PUSH2 0x114 JUMPI PUSH1 0x40 MLOAD PUSH3 0x461BCD PUSH1 0xE5 SHL DUP2 MSTORE PUSH1 0x20 PUSH1 0x4 DUP3 ADD MSTORE PUSH1 0x31 PUSH1 0x24 DUP3 ADD MSTORE PUSH32 0x4D61726B65743A204945524337323120636F6E74726163742061646472657373 PUSH1 0x44 DUP3 ADD MSTORE PUSH17 0x81B5D5CDD081899481B9BDB8B5B9D5B1B PUSH1 0x7A SHL PUSH1 0x64 DUP3 ADD MSTORE PUSH1 0x84 ADD PUSH2 0x9B JUMP JUMPDEST PUSH0 DUP1 SLOAD PUSH1 0x1 PUSH1 0x1 PUSH1 0xA0 SHL SUB SWAP4 DUP5 AND PUSH1 0x1 PUSH1 0x1 PUSH1 0xA0 SHL SUB NOT SWAP2 DUP3 AND OR SWAP1 SWAP2 SSTORE PUSH1 0x1 DUP1 SLOAD SWAP3 SWAP1 SWAP4 AND SWAP2 AND OR SWAP1 SSTORE PUSH2 0x193 JUMP JUMPDEST PUSH1 0x1 PUSH1 0x1 PUSH1 0xA0 SHL SUB DUP2 AND DUP2 EQ PUSH2 0x158 JUMPI PUSH0 DUP1 REVERT JUMPDEST POP JUMP JUMPDEST PUSH0 DUP1 PUSH1 0x40 DUP4 DUP6 SUB SLT ISZERO PUSH2 0x16C JUMPI PUSH0 DUP1 REVERT JUMPDEST DUP3 MLOAD PUSH2 0x177 DUP2 PUSH2 0x144 JUMP JUMPDEST PUSH1 0x20 DUP5 ADD MLOAD SWAP1 SWAP3 POP PUSH2 0x188 DUP2 PUSH2 0x144 JUMP JUMPDEST DUP1 SWAP2 POP POP SWAP3 POP SWAP3 SWAP1 POP JUMP JUMPDEST PUSH2 0x117C DUP1 PUSH3 0x1A1 PUSH0 CODECOPY PUSH0 RETURN INVALID PUSH1 0x80 PUSH1 0x40 MSTORE CALLVALUE DUP1 ISZERO PUSH2 0xF JUMPI PUSH0 DUP1 REVERT JUMPDEST POP PUSH1 0x4 CALLDATASIZE LT PUSH2 0xE5 JUMPI PUSH0 CALLDATALOAD PUSH1 0xE0 SHR DUP1 PUSH4 0xB3DE019C GT PUSH2 0x88 JUMPI DUP1 PUSH4 0xD96A094A GT PUSH2 0x63 JUMPI DUP1 PUSH4 0xD96A094A EQ PUSH2 0x22A JUMPI DUP1 PUSH4 0xDA694DF0 EQ PUSH2 0x23D JUMPI DUP1 PUSH4 0xE0391B09 EQ PUSH2 0x25C JUMPI DUP1 PUSH4 0xFCCE4883 EQ PUSH2 0x264 JUMPI PUSH0 DUP1 REVERT JUMPDEST DUP1 PUSH4 0xB3DE019C EQ PUSH2 0x1F1 JUMPI DUP1 PUSH4 0xB5CDF924 EQ PUSH2 0x204 JUMPI DUP1 PUSH4 0xBCA6CE64 EQ PUSH2 0x217 JUMPI PUSH0 DUP1 REVERT JUMPDEST DUP1 PUSH4 0x629CB2E4 GT PUSH2 0xC3 JUMPI DUP1 PUSH4 0x629CB2E4 EQ PUSH2 0x18D JUMPI DUP1 PUSH4 0x785E9E86 EQ PUSH2 0x1A2 JUMPI DUP1 PUSH4 0x9D4971B7 EQ PUSH2 0x1CC JUMPI DUP1 PUSH4 0xA85C38EF EQ PUSH2 0x1DE JUMPI PUSH0 DUP1 REVERT JUMPDEST DUP1 PUSH4 0x150B7A02 EQ PUSH2 0xE9 JUMPI DUP1 PUSH4 0x394A9077 EQ PUSH2 0x11A JUMPI DUP1 PUSH4 0x514FCAC7 EQ PUSH2 0x178 JUMPI JUMPDEST PUSH0 DUP1 REVERT JUMPDEST PUSH2 0xFC PUSH2 0xF7 CALLDATASIZE PUSH1 0x4 PUSH2 0xE81 JUMP JUMPDEST PUSH2 0x29E JUMP JUMPDEST PUSH1 0x40 MLOAD PUSH1 0x1 PUSH1 0x1 PUSH1 0xE0 SHL SUB NOT SWAP1 SWAP2 AND DUP2 MSTORE PUSH1 0x20 ADD JUMPDEST PUSH1 0x40 MLOAD DUP1 SWAP2 SUB SWAP1 RETURN JUMPDEST PUSH2 0x153 PUSH2 0x128 CALLDATASIZE PUSH1 0x4 PUSH2 0xF14 JUMP JUMPDEST PUSH1 0x2 PUSH1 0x20 DUP2 SWAP1 MSTORE PUSH0 SWAP2 DUP3 MSTORE PUSH1 0x40 SWAP1 SWAP2 KECCAK256 DUP1 SLOAD PUSH1 0x1 DUP3 ADD SLOAD SWAP2 SWAP1 SWAP3 ADD SLOAD PUSH1 0x1 PUSH1 0x1 PUSH1 0xA0 SHL SUB SWAP1 SWAP3 AND SWAP2 DUP4 JUMP JUMPDEST PUSH1 0x40 DUP1 MLOAD PUSH1 0x1 PUSH1 0x1 PUSH1 0xA0 SHL SUB SWAP1 SWAP5 AND DUP5 MSTORE PUSH1 0x20 DUP5 ADD SWAP3 SWAP1 SWAP3 MSTORE SWAP1 DUP3 ADD MSTORE PUSH1 0x60 ADD PUSH2 0x111 JUMP JUMPDEST PUSH2 0x18B PUSH2 0x186 CALLDATASIZE PUSH1 0x4 PUSH2 0xF14 JUMP JUMPDEST PUSH2 0x364 JUMP JUMPDEST STOP JUMPDEST PUSH2 0x195 PUSH2 0x4B3 JUMP JUMPDEST PUSH1 0x40 MLOAD PUSH2 0x111 SWAP2 SWAP1 PUSH2 0xF2B JUMP JUMPDEST PUSH0 SLOAD PUSH2 0x1B4 SWAP1 PUSH1 0x1 PUSH1 0x1 PUSH1 0xA0 SHL SUB AND DUP2 JUMP JUMPDEST PUSH1 0x40 MLOAD PUSH1 0x1 PUSH1 0x1 PUSH1 0xA0 SHL SUB SWAP1 SWAP2 AND DUP2 MSTORE PUSH1 0x20 ADD PUSH2 0x111 JUMP JUMPDEST PUSH1 0x3 SLOAD JUMPDEST PUSH1 0x40 MLOAD SWAP1 DUP2 MSTORE PUSH1 0x20 ADD PUSH2 0x111 JUMP JUMPDEST PUSH2 0x153 PUSH2 0x1EC CALLDATASIZE PUSH1 0x4 PUSH2 0xF14 JUMP JUMPDEST PUSH2 0x6CE JUMP JUMPDEST PUSH2 0x18B PUSH2 0x1FF CALLDATASIZE PUSH1 0x4 PUSH2 0xF8C JUMP JUMPDEST PUSH2 0x709 JUMP JUMPDEST PUSH2 0x1D0 PUSH2 0x212 CALLDATASIZE PUSH1 0x4 PUSH2 0xFC0 JUMP JUMPDEST PUSH2 0x84C JUMP JUMPDEST PUSH1 0x1 SLOAD PUSH2 0x1B4 SWAP1 PUSH1 0x1 PUSH1 0x1 PUSH1 0xA0 SHL SUB AND DUP2 JUMP JUMPDEST PUSH2 0x18B PUSH2 0x238 CALLDATASIZE PUSH1 0x4 PUSH2 0xF14 JUMP JUMPDEST PUSH2 0x911 JUMP JUMPDEST PUSH2 0x1D0 PUSH2 0x24B CALLDATASIZE PUSH1 0x4 PUSH2 0xF14 JUMP JUMPDEST PUSH1 0x4 PUSH1 0x20 MSTORE PUSH0 SWAP1 DUP2 MSTORE PUSH1 0x40 SWAP1 KECCAK256 SLOAD DUP2 JUMP JUMPDEST PUSH2 0x195 PUSH2 0xAFA JUMP JUMPDEST PUSH2 0x28E PUSH2 0x272 CALLDATASIZE PUSH1 0x4 PUSH2 0xF14 JUMP JUMPDEST PUSH0 SWAP1 DUP2 MSTORE PUSH1 0x2 PUSH1 0x20 MSTORE PUSH1 0x40 SWAP1 KECCAK256 SLOAD PUSH1 0x1 PUSH1 0x1 PUSH1 0xA0 SHL SUB AND ISZERO ISZERO SWAP1 JUMP JUMPDEST PUSH1 0x40 MLOAD SWAP1 ISZERO ISZERO DUP2 MSTORE PUSH1 0x20 ADD PUSH2 0x111 JUMP JUMPDEST PUSH0 DUP5 PUSH1 0x1 PUSH1 0x1 PUSH1 0xA0 SHL SUB AND DUP7 PUSH1 0x1 PUSH1 0x1 PUSH1 0xA0 SHL SUB AND EQ PUSH2 0x305 JUMPI PUSH1 0x40 MLOAD PUSH3 0x461BCD PUSH1 0xE5 SHL DUP2 MSTORE PUSH1 0x20 PUSH1 0x4 DUP3 ADD MSTORE PUSH1 0x1F PUSH1 0x24 DUP3 ADD MSTORE PUSH32 0x4D61726B65743A2053656C6C6572206D757374206265206F70657261746F7200 PUSH1 0x44 DUP3 ADD MSTORE PUSH1 0x64 ADD JUMPDEST PUSH1 0x40 MLOAD DUP1 SWAP2 SUB SWAP1 REVERT JUMPDEST PUSH0 PUSH2 0x344 DUP5 DUP5 DUP1 DUP1 PUSH1 0x1F ADD PUSH1 0x20 DUP1 SWAP2 DIV MUL PUSH1 0x20 ADD PUSH1 0x40 MLOAD SWAP1 DUP2 ADD PUSH1 0x40 MSTORE DUP1 SWAP4 SWAP3 SWAP2 SWAP1 DUP2 DUP2 MSTORE PUSH1 0x20 ADD DUP4 DUP4 DUP1 DUP3 DUP5 CALLDATACOPY PUSH0 SWAP3 ADD DUP3 SWAP1 MSTORE POP SWAP3 POP PUSH2 0x84C SWAP2 POP POP JUMP JUMPDEST SWAP1 POP PUSH2 0x351 DUP7 DUP7 DUP4 PUSH2 0xB7A JUMP JUMPDEST POP PUSH4 0xA85BD01 PUSH1 0xE1 SHL SWAP7 SWAP6 POP POP POP POP POP POP JUMP JUMPDEST PUSH0 DUP2 DUP2 MSTORE PUSH1 0x2 PUSH1 0x20 MSTORE PUSH1 0x40 SWAP1 KECCAK256 SLOAD PUSH1 0x1 PUSH1 0x1 PUSH1 0xA0 SHL SUB AND PUSH2 0x397 JUMPI PUSH1 0x40 MLOAD PUSH3 0x461BCD PUSH1 0xE5 SHL DUP2 MSTORE PUSH1 0x4 ADD PUSH2 0x2FC SWAP1 PUSH2 0x106F JUMP JUMPDEST PUSH0 DUP2 DUP2 MSTORE PUSH1 0x2 PUSH1 0x20 MSTORE PUSH1 0x40 SWAP1 KECCAK256 SLOAD PUSH1 0x1 PUSH1 0x1 PUSH1 0xA0 SHL SUB AND CALLER DUP2 EQ PUSH2 0x3FD JUMPI PUSH1 0x40 MLOAD PUSH3 0x461BCD PUSH1 0xE5 SHL DUP2 MSTORE PUSH1 0x20 PUSH1 0x4 DUP3 ADD MSTORE PUSH1 0x1C PUSH1 0x24 DUP3 ADD MSTORE PUSH32 0x4D61726B65743A2053656E646572206973206E6F742073656C6C657200000000 PUSH1 0x44 DUP3 ADD MSTORE PUSH1 0x64 ADD PUSH2 0x2FC JUMP JUMPDEST PUSH1 0x1 SLOAD PUSH1 0x40 MLOAD PUSH4 0x21421707 PUSH1 0xE1 SHL DUP2 MSTORE ADDRESS PUSH1 0x4 DUP3 ADD MSTORE PUSH1 0x1 PUSH1 0x1 PUSH1 0xA0 SHL SUB DUP4 DUP2 AND PUSH1 0x24 DUP4 ADD MSTORE PUSH1 0x44 DUP3 ADD DUP6 SWAP1 MSTORE SWAP1 SWAP2 AND SWAP1 PUSH4 0x42842E0E SWAP1 PUSH1 0x64 ADD PUSH0 PUSH1 0x40 MLOAD DUP1 DUP4 SUB DUP2 PUSH0 DUP8 DUP1 EXTCODESIZE ISZERO DUP1 ISZERO PUSH2 0x44E JUMPI PUSH0 DUP1 REVERT JUMPDEST POP GAS CALL ISZERO DUP1 ISZERO PUSH2 0x460 JUMPI RETURNDATASIZE PUSH0 DUP1 RETURNDATACOPY RETURNDATASIZE PUSH0 REVERT JUMPDEST POP POP POP POP PUSH2 0x46D DUP3 PUSH2 0xD12 JUMP JUMPDEST PUSH1 0x40 DUP1 MLOAD PUSH1 0x1 PUSH1 0x1 PUSH1 0xA0 SHL SUB DUP4 AND DUP2 MSTORE PUSH1 0x20 DUP2 ADD DUP5 SWAP1 MSTORE PUSH32 0xC0E68D6B69F741C21E955CAD2AE4D505B6F6735C7E7B278251B3F6283A5F07EB SWAP2 ADD PUSH1 0x40 MLOAD DUP1 SWAP2 SUB SWAP1 LOG1 POP POP JUMP JUMPDEST PUSH1 0x3 SLOAD PUSH1 0x60 SWAP1 PUSH0 SWAP1 PUSH8 0xFFFFFFFFFFFFFFFF DUP2 GT ISZERO PUSH2 0x4D3 JUMPI PUSH2 0x4D3 PUSH2 0xFAC JUMP JUMPDEST PUSH1 0x40 MLOAD SWAP1 DUP1 DUP3 MSTORE DUP1 PUSH1 0x20 MUL PUSH1 0x20 ADD DUP3 ADD PUSH1 0x40 MSTORE DUP1 ISZERO PUSH2 0x52E JUMPI DUP2 PUSH1 0x20 ADD JUMPDEST PUSH2 0x51B PUSH1 0x40 MLOAD DUP1 PUSH1 0x60 ADD PUSH1 0x40 MSTORE DUP1 PUSH0 PUSH1 0x1 PUSH1 0x1 PUSH1 0xA0 SHL SUB AND DUP2 MSTORE PUSH1 0x20 ADD PUSH0 DUP2 MSTORE PUSH1 0x20 ADD PUSH0 DUP2 MSTORE POP SWAP1 JUMP JUMPDEST DUP2 MSTORE PUSH1 0x20 ADD SWAP1 PUSH1 0x1 SWAP1 SUB SWAP1 DUP2 PUSH2 0x4F1 JUMPI SWAP1 POP JUMPDEST POP SWAP1 POP PUSH0 DUP1 JUMPDEST PUSH1 0x3 SLOAD DUP2 LT ISZERO PUSH2 0x604 JUMPI CALLER PUSH1 0x1 PUSH1 0x1 PUSH1 0xA0 SHL SUB AND PUSH1 0x3 DUP3 DUP2 SLOAD DUP2 LT PUSH2 0x55B JUMPI PUSH2 0x55B PUSH2 0x10A6 JUMP JUMPDEST PUSH0 SWAP2 DUP3 MSTORE PUSH1 0x20 SWAP1 SWAP2 KECCAK256 PUSH1 0x3 SWAP1 SWAP2 MUL ADD SLOAD PUSH1 0x1 PUSH1 0x1 PUSH1 0xA0 SHL SUB AND SUB PUSH2 0x5FC JUMPI PUSH1 0x3 DUP2 DUP2 SLOAD DUP2 LT PUSH2 0x58C JUMPI PUSH2 0x58C PUSH2 0x10A6 JUMP JUMPDEST PUSH0 SWAP2 DUP3 MSTORE PUSH1 0x20 SWAP2 DUP3 SWAP1 KECCAK256 PUSH1 0x40 DUP1 MLOAD PUSH1 0x60 DUP2 ADD DUP3 MSTORE PUSH1 0x3 SWAP1 SWAP4 MUL SWAP1 SWAP2 ADD DUP1 SLOAD PUSH1 0x1 PUSH1 0x1 PUSH1 0xA0 SHL SUB AND DUP4 MSTORE PUSH1 0x1 DUP2 ADD SLOAD SWAP4 DUP4 ADD SWAP4 SWAP1 SWAP4 MSTORE PUSH1 0x2 SWAP1 SWAP3 ADD SLOAD SWAP2 DUP2 ADD SWAP2 SWAP1 SWAP2 MSTORE DUP4 MLOAD DUP5 SWAP1 DUP5 SWAP1 DUP2 LT PUSH2 0x5E2 JUMPI PUSH2 0x5E2 PUSH2 0x10A6 JUMP JUMPDEST PUSH1 0x20 MUL PUSH1 0x20 ADD ADD DUP2 SWAP1 MSTORE POP DUP2 DUP1 PUSH2 0x5F8 SWAP1 PUSH2 0x10CE JUMP JUMPDEST SWAP3 POP POP JUMPDEST PUSH1 0x1 ADD PUSH2 0x534 JUMP JUMPDEST POP PUSH0 DUP2 PUSH8 0xFFFFFFFFFFFFFFFF DUP2 GT ISZERO PUSH2 0x61F JUMPI PUSH2 0x61F PUSH2 0xFAC JUMP JUMPDEST PUSH1 0x40 MLOAD SWAP1 DUP1 DUP3 MSTORE DUP1 PUSH1 0x20 MUL PUSH1 0x20 ADD DUP3 ADD PUSH1 0x40 MSTORE DUP1 ISZERO PUSH2 0x67A JUMPI DUP2 PUSH1 0x20 ADD JUMPDEST PUSH2 0x667 PUSH1 0x40 MLOAD DUP1 PUSH1 0x60 ADD PUSH1 0x40 MSTORE DUP1 PUSH0 PUSH1 0x1 PUSH1 0x1 PUSH1 0xA0 SHL SUB AND DUP2 MSTORE PUSH1 0x20 ADD PUSH0 DUP2 MSTORE PUSH1 0x20 ADD PUSH0 DUP2 MSTORE POP SWAP1 JUMP JUMPDEST DUP2 MSTORE PUSH1 0x20 ADD SWAP1 PUSH1 0x1 SWAP1 SUB SWAP1 DUP2 PUSH2 0x63D JUMPI SWAP1 POP JUMPDEST POP SWAP1 POP PUSH0 JUMPDEST DUP3 DUP2 LT ISZERO PUSH2 0x6C6 JUMPI DUP4 DUP2 DUP2 MLOAD DUP2 LT PUSH2 0x699 JUMPI PUSH2 0x699 PUSH2 0x10A6 JUMP JUMPDEST PUSH1 0x20 MUL PUSH1 0x20 ADD ADD MLOAD DUP3 DUP3 DUP2 MLOAD DUP2 LT PUSH2 0x6B3 JUMPI PUSH2 0x6B3 PUSH2 0x10A6 JUMP JUMPDEST PUSH1 0x20 SWAP1 DUP2 MUL SWAP2 SWAP1 SWAP2 ADD ADD MSTORE PUSH1 0x1 ADD PUSH2 0x67F JUMP JUMPDEST POP SWAP4 SWAP3 POP POP POP JUMP JUMPDEST PUSH1 0x3 DUP2 DUP2 SLOAD DUP2 LT PUSH2 0x6DD JUMPI PUSH0 DUP1 REVERT JUMPDEST PUSH0 SWAP2 DUP3 MSTORE PUSH1 0x20 SWAP1 SWAP2 KECCAK256 PUSH1 0x3 SWAP1 SWAP2 MUL ADD DUP1 SLOAD PUSH1 0x1 DUP3 ADD SLOAD PUSH1 0x2 SWAP1 SWAP3 ADD SLOAD PUSH1 0x1 PUSH1 0x1 PUSH1 0xA0 SHL SUB SWAP1 SWAP2 AND SWAP3 POP DUP4 JUMP JUMPDEST PUSH0 DUP3 DUP2 MSTORE PUSH1 0x2 PUSH1 0x20 MSTORE PUSH1 0x40 SWAP1 KECCAK256 SLOAD PUSH1 0x1 PUSH1 0x1 PUSH1 0xA0 SHL SUB AND PUSH2 0x73C JUMPI PUSH1 0x40 MLOAD PUSH3 0x461BCD PUSH1 0xE5 SHL DUP2 MSTORE PUSH1 0x4 ADD PUSH2 0x2FC SWAP1 PUSH2 0x106F JUMP JUMPDEST PUSH0 DUP3 DUP2 MSTORE PUSH1 0x2 PUSH1 0x20 MSTORE PUSH1 0x40 SWAP1 KECCAK256 SLOAD PUSH1 0x1 PUSH1 0x1 PUSH1 0xA0 SHL SUB AND CALLER DUP2 EQ PUSH2 0x7A2 JUMPI PUSH1 0x40 MLOAD PUSH3 0x461BCD PUSH1 0xE5 SHL DUP2 MSTORE PUSH1 0x20 PUSH1 0x4 DUP3 ADD MSTORE PUSH1 0x1C PUSH1 0x24 DUP3 ADD MSTORE PUSH32 0x4D61726B65743A2053656E646572206973206E6F742073656C6C657200000000 PUSH1 0x44 DUP3 ADD MSTORE PUSH1 0x64 ADD PUSH2 0x2FC JUMP JUMPDEST PUSH0 DUP4 DUP2 MSTORE PUSH1 0x2 PUSH1 0x20 DUP2 DUP2 MSTORE PUSH1 0x40 DUP1 DUP5 KECCAK256 SWAP1 SWAP3 ADD DUP1 SLOAD SWAP1 DUP7 SWAP1 SSTORE PUSH1 0x4 SWAP1 SWAP2 MSTORE SWAP1 DUP3 KECCAK256 SLOAD PUSH1 0x3 DUP1 SLOAD SWAP3 SWAP4 SWAP3 SWAP1 SWAP2 SWAP1 DUP2 LT PUSH2 0x7DC JUMPI PUSH2 0x7DC PUSH2 0x10A6 JUMP JUMPDEST PUSH0 SWAP2 DUP3 MSTORE PUSH1 0x20 SWAP2 DUP3 SWAP1 KECCAK256 PUSH1 0x2 PUSH1 0x3 SWAP1 SWAP3 MUL ADD SWAP1 DUP2 ADD DUP7 SWAP1 SSTORE PUSH1 0x40 DUP1 MLOAD PUSH1 0x1 PUSH1 0x1 PUSH1 0xA0 SHL SUB DUP8 AND DUP2 MSTORE SWAP3 DUP4 ADD DUP9 SWAP1 MSTORE DUP3 ADD DUP5 SWAP1 MSTORE PUSH1 0x60 DUP3 ADD DUP7 SWAP1 MSTORE SWAP2 POP PUSH32 0x342A7F6248980B0F191B96EB6B7A439C4DA78B2C97B86CA66CC7EE90D4B04CCE SWAP1 PUSH1 0x80 ADD PUSH1 0x40 MLOAD DUP1 SWAP2 SUB SWAP1 LOG1 POP POP POP POP POP JUMP JUMPDEST PUSH0 DUP2 PUSH2 0x859 DUP2 PUSH1 0x20 PUSH2 0x10E6 JUMP JUMPDEST LT ISZERO PUSH2 0x8A7 JUMPI PUSH1 0x40 MLOAD PUSH3 0x461BCD PUSH1 0xE5 SHL DUP2 MSTORE PUSH1 0x20 PUSH1 0x4 DUP3 ADD MSTORE PUSH1 0x1A PUSH1 0x24 DUP3 ADD MSTORE PUSH32 0x4D61726B65743A20746F55696E743235365F6F766572666C6F77000000000000 PUSH1 0x44 DUP3 ADD MSTORE PUSH1 0x64 ADD PUSH2 0x2FC JUMP JUMPDEST PUSH2 0x8B2 DUP3 PUSH1 0x20 PUSH2 0x10E6 JUMP JUMPDEST DUP4 MLOAD LT ISZERO PUSH2 0x902 JUMPI PUSH1 0x40 MLOAD PUSH3 0x461BCD PUSH1 0xE5 SHL DUP2 MSTORE PUSH1 0x20 PUSH1 0x4 DUP3 ADD MSTORE PUSH1 0x1D PUSH1 0x24 DUP3 ADD MSTORE PUSH32 0x4D61726B65743A20746F55696E743235365F6F75744F66426F756E6473000000 PUSH1 0x44 DUP3 ADD MSTORE PUSH1 0x64 ADD PUSH2 0x2FC JUMP JUMPDEST POP DUP2 DUP2 ADD PUSH1 0x20 ADD MLOAD JUMPDEST SWAP3 SWAP2 POP POP JUMP JUMPDEST PUSH0 DUP2 DUP2 MSTORE PUSH1 0x2 PUSH1 0x20 MSTORE PUSH1 0x40 SWAP1 KECCAK256 SLOAD PUSH1 0x1 PUSH1 0x1 PUSH1 0xA0 SHL SUB AND PUSH2 0x944 JUMPI PUSH1 0x40 MLOAD PUSH3 0x461BCD PUSH1 0xE5 SHL DUP2 MSTORE PUSH1 0x4 ADD PUSH2 0x2FC SWAP1 PUSH2 0x106F JUMP JUMPDEST PUSH0 DUP2 DUP2 MSTORE PUSH1 0x2 PUSH1 0x20 DUP2 SWAP1 MSTORE PUSH1 0x40 DUP1 DUP4 KECCAK256 DUP1 SLOAD SWAP3 ADD SLOAD SWAP3 SLOAD SWAP1 MLOAD PUSH4 0x23B872DD PUSH1 0xE0 SHL DUP2 MSTORE CALLER PUSH1 0x4 DUP3 ADD DUP2 SWAP1 MSTORE PUSH1 0x1 PUSH1 0x1 PUSH1 0xA0 SHL SUB SWAP4 DUP5 AND PUSH1 0x24 DUP4 ADD DUP2 SWAP1 MSTORE PUSH1 0x44 DUP4 ADD DUP7 SWAP1 MSTORE SWAP5 SWAP1 SWAP4 SWAP1 SWAP3 AND SWAP1 PUSH4 0x23B872DD SWAP1 PUSH1 0x64 ADD PUSH1 0x20 PUSH1 0x40 MLOAD DUP1 DUP4 SUB DUP2 PUSH0 DUP8 GAS CALL ISZERO DUP1 ISZERO PUSH2 0x9B4 JUMPI RETURNDATASIZE PUSH0 DUP1 RETURNDATACOPY RETURNDATASIZE PUSH0 REVERT JUMPDEST POP POP POP POP PUSH1 0x40 MLOAD RETURNDATASIZE PUSH1 0x1F NOT PUSH1 0x1F DUP3 ADD AND DUP3 ADD DUP1 PUSH1 0x40 MSTORE POP DUP2 ADD SWAP1 PUSH2 0x9D8 SWAP2 SWAP1 PUSH2 0x10F9 JUMP JUMPDEST PUSH2 0xA32 JUMPI PUSH1 0x40 MLOAD PUSH3 0x461BCD PUSH1 0xE5 SHL DUP2 MSTORE PUSH1 0x20 PUSH1 0x4 DUP3 ADD MSTORE PUSH1 0x25 PUSH1 0x24 DUP3 ADD MSTORE PUSH32 0x4D61726B65743A204552433230207472616E73666572206E6F74207375636365 PUSH1 0x44 DUP3 ADD MSTORE PUSH5 0x1CDCD99D5B PUSH1 0xDA SHL PUSH1 0x64 DUP3 ADD MSTORE PUSH1 0x84 ADD PUSH2 0x2FC JUMP JUMPDEST PUSH1 0x1 SLOAD PUSH1 0x40 MLOAD PUSH4 0x21421707 PUSH1 0xE1 SHL DUP2 MSTORE ADDRESS PUSH1 0x4 DUP3 ADD MSTORE PUSH1 0x1 PUSH1 0x1 PUSH1 0xA0 SHL SUB DUP5 DUP2 AND PUSH1 0x24 DUP4 ADD MSTORE PUSH1 0x44 DUP3 ADD DUP8 SWAP1 MSTORE SWAP1 SWAP2 AND SWAP1 PUSH4 0x42842E0E SWAP1 PUSH1 0x64 ADD PUSH0 PUSH1 0x40 MLOAD DUP1 DUP4 SUB DUP2 PUSH0 DUP8 DUP1 EXTCODESIZE ISZERO DUP1 ISZERO PUSH2 0xA83 JUMPI PUSH0 DUP1 REVERT JUMPDEST POP GAS CALL ISZERO DUP1 ISZERO PUSH2 0xA95 JUMPI RETURNDATASIZE PUSH0 DUP1 RETURNDATACOPY RETURNDATASIZE PUSH0 REVERT JUMPDEST POP POP POP POP PUSH2 0xAA2 DUP5 PUSH2 0xD12 JUMP JUMPDEST PUSH1 0x40 DUP1 MLOAD PUSH1 0x1 PUSH1 0x1 PUSH1 0xA0 SHL SUB DUP1 DUP6 AND DUP3 MSTORE DUP6 AND PUSH1 0x20 DUP3 ADD MSTORE SWAP1 DUP2 ADD DUP6 SWAP1 MSTORE PUSH1 0x60 DUP2 ADD DUP3 SWAP1 MSTORE PUSH32 0x424D5E5F0192C7DACDBE646CA31B00299146D883D76A95EF5CDDBAC7CD342EAB SWAP1 PUSH1 0x80 ADD PUSH1 0x40 MLOAD DUP1 SWAP2 SUB SWAP1 LOG1 POP POP POP POP JUMP JUMPDEST PUSH1 0x60 PUSH1 0x3 DUP1 SLOAD DUP1 PUSH1 0x20 MUL PUSH1 0x20 ADD PUSH1 0x40 MLOAD SWAP1 DUP2 ADD PUSH1 0x40 MSTORE DUP1 SWAP3 SWAP2 SWAP1 DUP2 DUP2 MSTORE PUSH1 0x20 ADD PUSH0 SWAP1 JUMPDEST DUP3 DUP3 LT ISZERO PUSH2 0xB71 JUMPI PUSH0 DUP5 DUP2 MSTORE PUSH1 0x20 SWAP1 DUP2 SWAP1 KECCAK256 PUSH1 0x40 DUP1 MLOAD PUSH1 0x60 DUP2 ADD DUP3 MSTORE PUSH1 0x3 DUP7 MUL SWAP1 SWAP3 ADD DUP1 SLOAD PUSH1 0x1 PUSH1 0x1 PUSH1 0xA0 SHL SUB AND DUP4 MSTORE PUSH1 0x1 DUP1 DUP3 ADD SLOAD DUP5 DUP7 ADD MSTORE PUSH1 0x2 SWAP1 SWAP2 ADD SLOAD SWAP2 DUP4 ADD SWAP2 SWAP1 SWAP2 MSTORE SWAP1 DUP4 MSTORE SWAP1 SWAP3 ADD SWAP2 ADD PUSH2 0xB1D JUMP JUMPDEST POP POP POP POP SWAP1 POP SWAP1 JUMP JUMPDEST PUSH0 DUP2 GT PUSH2 0xBD9 JUMPI PUSH1 0x40 MLOAD PUSH3 0x461BCD PUSH1 0xE5 SHL DUP2 MSTORE PUSH1 0x20 PUSH1 0x4 DUP3 ADD MSTORE PUSH1 0x27 PUSH1 0x24 DUP3 ADD MSTORE PUSH32 0x4D61726B65743A205072696365206D7573742062652067726561746572207468 PUSH1 0x44 DUP3 ADD MSTORE PUSH7 0x616E207A65726F PUSH1 0xC8 SHL PUSH1 0x64 DUP3 ADD MSTORE PUSH1 0x84 ADD PUSH2 0x2FC JUMP JUMPDEST PUSH0 DUP3 DUP2 MSTORE PUSH1 0x2 PUSH1 0x20 DUP2 SWAP1 MSTORE PUSH1 0x40 DUP3 KECCAK256 DUP1 SLOAD PUSH1 0x1 PUSH1 0x1 PUSH1 0xA0 SHL SUB DUP1 DUP9 AND PUSH1 0x1 PUSH1 0x1 PUSH1 0xA0 SHL SUB NOT SWAP3 DUP4 AND OR DUP4 SSTORE SWAP3 DUP3 ADD DUP6 DUP2 SSTORE PUSH1 0x1 DUP1 DUP5 ADD DUP9 DUP2 SSTORE PUSH1 0x3 DUP1 SLOAD DUP1 DUP5 ADD DUP3 SSTORE SWAP8 DUP2 SWAP1 MSTORE SWAP5 SLOAD SWAP7 DUP6 MUL PUSH32 0xC2575A0E9E593C00F959F8C92F12DB2869C3395A3B0502D05E2516446F71F85B DUP2 ADD DUP1 SLOAD SWAP1 SWAP6 AND SWAP8 SWAP1 SWAP7 AND SWAP7 SWAP1 SWAP7 OR SWAP1 SWAP3 SSTORE SWAP4 SLOAD PUSH32 0xC2575A0E9E593C00F959F8C92F12DB2869C3395A3B0502D05E2516446F71F85C DUP5 ADD SSTORE SWAP3 SLOAD PUSH32 0xC2575A0E9E593C00F959F8C92F12DB2869C3395A3B0502D05E2516446F71F85D SWAP1 SWAP3 ADD SWAP2 SWAP1 SWAP2 SSTORE SLOAD PUSH2 0xCB2 SWAP2 SWAP1 PUSH2 0x111F JUMP JUMPDEST PUSH0 DUP4 DUP2 MSTORE PUSH1 0x4 PUSH1 0x20 SWAP1 DUP2 MSTORE PUSH1 0x40 SWAP2 DUP3 SWAP1 KECCAK256 SWAP3 SWAP1 SWAP3 SSTORE DUP1 MLOAD PUSH1 0x1 PUSH1 0x1 PUSH1 0xA0 SHL SUB DUP7 AND DUP2 MSTORE SWAP2 DUP3 ADD DUP5 SWAP1 MSTORE DUP2 ADD DUP3 SWAP1 MSTORE PUSH32 0xD5B509E657D5EC37AE4BDCAB658B7340C0453BB630516D26623359A34C1CECF3 SWAP1 PUSH1 0x60 ADD PUSH1 0x40 MLOAD DUP1 SWAP2 SUB SWAP1 LOG1 POP POP POP JUMP JUMPDEST PUSH0 DUP2 DUP2 MSTORE PUSH1 0x2 PUSH1 0x20 DUP2 DUP2 MSTORE PUSH1 0x40 DUP1 DUP5 KECCAK256 DUP1 SLOAD PUSH1 0x1 PUSH1 0x1 PUSH1 0xA0 SHL SUB NOT AND DUP2 SSTORE PUSH1 0x1 DUP1 DUP3 ADD DUP7 SWAP1 SSTORE SWAP4 ADD DUP5 SWAP1 SSTORE PUSH1 0x4 SWAP1 SWAP2 MSTORE DUP3 KECCAK256 SLOAD PUSH1 0x3 SLOAD SWAP1 SWAP3 SWAP2 PUSH2 0xD54 SWAP2 PUSH2 0x111F JUMP JUMPDEST SWAP1 POP DUP2 DUP2 EQ PUSH2 0xE22 JUMPI PUSH0 PUSH1 0x3 DUP3 DUP2 SLOAD DUP2 LT PUSH2 0xD71 JUMPI PUSH2 0xD71 PUSH2 0x10A6 JUMP JUMPDEST PUSH0 SWAP2 DUP3 MSTORE PUSH1 0x20 SWAP2 DUP3 SWAP1 KECCAK256 PUSH1 0x40 DUP1 MLOAD PUSH1 0x60 DUP2 ADD DUP3 MSTORE PUSH1 0x3 SWAP4 DUP5 MUL SWAP1 SWAP3 ADD DUP1 SLOAD PUSH1 0x1 PUSH1 0x1 PUSH1 0xA0 SHL SUB AND DUP4 MSTORE PUSH1 0x1 DUP2 ADD SLOAD SWAP5 DUP4 ADD SWAP5 SWAP1 SWAP5 MSTORE PUSH1 0x2 SWAP1 SWAP4 ADD SLOAD SWAP3 DUP2 ADD SWAP3 SWAP1 SWAP3 MSTORE DUP1 SLOAD SWAP2 SWAP3 POP DUP3 SWAP2 DUP6 SWAP1 DUP2 LT PUSH2 0xDCA JUMPI PUSH2 0xDCA PUSH2 0x10A6 JUMP JUMPDEST PUSH0 SWAP2 DUP3 MSTORE PUSH1 0x20 DUP1 DUP4 KECCAK256 DUP5 MLOAD PUSH1 0x3 SWAP4 SWAP1 SWAP4 MUL ADD DUP1 SLOAD PUSH1 0x1 PUSH1 0x1 PUSH1 0xA0 SHL SUB NOT AND PUSH1 0x1 PUSH1 0x1 PUSH1 0xA0 SHL SUB SWAP1 SWAP4 AND SWAP3 SWAP1 SWAP3 OR DUP3 SSTORE DUP4 DUP2 ADD MLOAD PUSH1 0x1 DUP4 ADD SSTORE PUSH1 0x40 SWAP4 DUP5 ADD MLOAD PUSH1 0x2 SWAP1 SWAP3 ADD SWAP2 SWAP1 SWAP2 SSTORE SWAP3 DUP4 ADD MLOAD DUP2 MSTORE PUSH1 0x4 SWAP1 SWAP3 MSTORE SWAP1 KECCAK256 DUP3 SWAP1 SSTORE JUMPDEST PUSH1 0x3 DUP1 SLOAD DUP1 PUSH2 0xE33 JUMPI PUSH2 0xE33 PUSH2 0x1132 JUMP JUMPDEST PUSH0 DUP3 DUP2 MSTORE PUSH1 0x20 DUP2 KECCAK256 PUSH1 0x3 PUSH0 NOT SWAP1 SWAP4 ADD SWAP3 DUP4 MUL ADD DUP1 SLOAD PUSH1 0x1 PUSH1 0x1 PUSH1 0xA0 SHL SUB NOT AND DUP2 SSTORE PUSH1 0x1 DUP2 ADD DUP3 SWAP1 SSTORE PUSH1 0x2 ADD SSTORE SWAP1 SSTORE POP POP POP JUMP JUMPDEST DUP1 CALLDATALOAD PUSH1 0x1 PUSH1 0x1 PUSH1 0xA0 SHL SUB DUP2 AND DUP2 EQ PUSH2 0xE7C JUMPI PUSH0 DUP1 REVERT JUMPDEST SWAP2 SWAP1 POP JUMP JUMPDEST PUSH0 DUP1 PUSH0 DUP1 PUSH0 PUSH1 0x80 DUP7 DUP9 SUB SLT ISZERO PUSH2 0xE95 JUMPI PUSH0 DUP1 REVERT JUMPDEST PUSH2 0xE9E DUP7 PUSH2 0xE66 JUMP JUMPDEST SWAP5 POP PUSH2 0xEAC PUSH1 0x20 DUP8 ADD PUSH2 0xE66 JUMP JUMPDEST SWAP4 POP PUSH1 0x40 DUP7 ADD CALLDATALOAD SWAP3 POP PUSH1 0x60 DUP7 ADD CALLDATALOAD PUSH8 0xFFFFFFFFFFFFFFFF DUP1 DUP3 GT ISZERO PUSH2 0xECF JUMPI PUSH0 DUP1 REVERT JUMPDEST DUP2 DUP9 ADD SWAP2 POP DUP9 PUSH1 0x1F DUP4 ADD SLT PUSH2 0xEE2 JUMPI PUSH0 DUP1 REVERT JUMPDEST DUP2 CALLDATALOAD DUP2 DUP2 GT ISZERO PUSH2 0xEF0 JUMPI PUSH0 DUP1 REVERT JUMPDEST DUP10 PUSH1 0x20 DUP3 DUP6 ADD ADD GT ISZERO PUSH2 0xF01 JUMPI PUSH0 DUP1 REVERT JUMPDEST SWAP7 SWAP10 SWAP6 SWAP9 POP SWAP4 SWAP7 POP PUSH1 0x20 ADD SWAP5 SWAP4 SWAP3 POP POP POP JUMP JUMPDEST PUSH0 PUSH1 0x20 DUP3 DUP5 SUB SLT ISZERO PUSH2 0xF24 JUMPI PUSH0 DUP1 REVERT JUMPDEST POP CALLDATALOAD SWAP2 SWAP1 POP JUMP JUMPDEST PUSH1 0x20 DUP1 DUP3 MSTORE DUP3 MLOAD DUP3 DUP3 ADD DUP2 SWAP1 MSTORE PUSH0 SWAP2 SWAP1 PUSH1 0x40 SWAP1 DUP2 DUP6 ADD SWAP1 DUP7 DUP5 ADD DUP6 JUMPDEST DUP3 DUP2 LT ISZERO PUSH2 0xF7F JUMPI DUP2 MLOAD DUP1 MLOAD PUSH1 0x1 PUSH1 0x1 PUSH1 0xA0 SHL SUB AND DUP6 MSTORE DUP7 DUP2 ADD MLOAD DUP8 DUP7 ADD MSTORE DUP6 ADD MLOAD DUP6 DUP6 ADD MSTORE PUSH1 0x60 SWAP1 SWAP4 ADD SWAP3 SWAP1 DUP6 ADD SWAP1 PUSH1 0x1 ADD PUSH2 0xF47 JUMP JUMPDEST POP SWAP2 SWAP8 SWAP7 POP POP POP POP POP POP POP JUMP JUMPDEST PUSH0 DUP1 PUSH1 0x40 DUP4 DUP6 SUB SLT ISZERO PUSH2 0xF9D JUMPI PUSH0 DUP1 REVERT JUMPDEST POP POP DUP1 CALLDATALOAD SWAP3 PUSH1 0x20 SWAP1 SWAP2 ADD CALLDATALOAD SWAP2 POP JUMP JUMPDEST PUSH4 0x4E487B71 PUSH1 0xE0 SHL PUSH0 MSTORE PUSH1 0x41 PUSH1 0x4 MSTORE PUSH1 0x24 PUSH0 REVERT JUMPDEST PUSH0 DUP1 PUSH1 0x40 DUP4 DUP6 SUB SLT ISZERO PUSH2 0xFD1 JUMPI PUSH0 DUP1 REVERT JUMPDEST DUP3 CALLDATALOAD PUSH8 0xFFFFFFFFFFFFFFFF DUP1 DUP3 GT ISZERO PUSH2 0xFE8 JUMPI PUSH0 DUP1 REVERT JUMPDEST DUP2 DUP6 ADD SWAP2 POP DUP6 PUSH1 0x1F DUP4 ADD SLT PUSH2 0xFFB JUMPI PUSH0 DUP1 REVERT JUMPDEST DUP2 CALLDATALOAD DUP2 DUP2 GT ISZERO PUSH2 0x100D JUMPI PUSH2 0x100D PUSH2 0xFAC JUMP JUMPDEST PUSH1 0x40 MLOAD PUSH1 0x1F DUP3 ADD PUSH1 0x1F NOT SWAP1 DUP2 AND PUSH1 0x3F ADD AND DUP2 ADD SWAP1 DUP4 DUP3 GT DUP2 DUP4 LT OR ISZERO PUSH2 0x1035 JUMPI PUSH2 0x1035 PUSH2 0xFAC JUMP JUMPDEST DUP2 PUSH1 0x40 MSTORE DUP3 DUP2 MSTORE DUP9 PUSH1 0x20 DUP5 DUP8 ADD ADD GT ISZERO PUSH2 0x104D JUMPI PUSH0 DUP1 REVERT JUMPDEST DUP3 PUSH1 0x20 DUP7 ADD PUSH1 0x20 DUP4 ADD CALLDATACOPY PUSH0 PUSH1 0x20 SWAP4 DUP3 ADD DUP5 ADD MSTORE SWAP9 SWAP7 SWAP1 SWAP2 ADD CALLDATALOAD SWAP7 POP POP POP POP POP POP JUMP JUMPDEST PUSH1 0x20 DUP1 DUP3 MSTORE PUSH1 0x1E SWAP1 DUP3 ADD MSTORE PUSH32 0x4D61726B65743A20546F6B656E204944206973206E6F74206C69737465640000 PUSH1 0x40 DUP3 ADD MSTORE PUSH1 0x60 ADD SWAP1 JUMP JUMPDEST PUSH4 0x4E487B71 PUSH1 0xE0 SHL PUSH0 MSTORE PUSH1 0x32 PUSH1 0x4 MSTORE PUSH1 0x24 PUSH0 REVERT JUMPDEST PUSH4 0x4E487B71 PUSH1 0xE0 SHL PUSH0 MSTORE PUSH1 0x11 PUSH1 0x4 MSTORE PUSH1 0x24 PUSH0 REVERT JUMPDEST PUSH0 PUSH1 0x1 DUP3 ADD PUSH2 0x10DF JUMPI PUSH2 0x10DF PUSH2 0x10BA JUMP JUMPDEST POP PUSH1 0x1 ADD SWAP1 JUMP JUMPDEST DUP1 DUP3 ADD DUP1 DUP3 GT ISZERO PUSH2 0x90B JUMPI PUSH2 0x90B PUSH2 0x10BA JUMP JUMPDEST PUSH0 PUSH1 0x20 DUP3 DUP5 SUB SLT ISZERO PUSH2 0x1109 JUMPI PUSH0 DUP1 REVERT JUMPDEST DUP2 MLOAD DUP1 ISZERO ISZERO DUP2 EQ PUSH2 0x1118 JUMPI PUSH0 DUP1 REVERT JUMPDEST SWAP4 SWAP3 POP POP POP JUMP JUMPDEST DUP2 DUP2 SUB DUP2 DUP2 GT ISZERO PUSH2 0x90B JUMPI PUSH2 0x90B PUSH2 0x10BA JUMP JUMPDEST PUSH4 0x4E487B71 PUSH1 0xE0 SHL PUSH0 MSTORE PUSH1 0x31 PUSH1 0x4 MSTORE PUSH1 0x24 PUSH0 REVERT INVALID LOG2 PUSH5 0x6970667358 0x22 SLT KECCAK256 REVERT DUP9 MLOAD 0x26 0xD7 SHR DUP9 0xB6 0xB6 SWAP16 0xEA DUP7 DUP10 0x4E 0xE5 0xC2 DIV ADD PUSH14 0x1E1412CF95325ED802B529C74D64 PUSH20 0x6F6C634300081600330000000000000000000000 "
				},
				"gasEstimates": {
					"creation": {
						"codeDepositCost": "895200",
						"executionCost": "infinite",
						"totalCost": "infinite"
					},
					"external": {
						"buy(uint256)": "infinite",
						"cancelOrder(uint256)": "infinite",
						"changePrice(uint256,uint256)": "57390",
						"erc20()": "2380",
						"erc721()": "2403",
						"getAllNFTs()": "infinite",
						"getMyNFTs()": "infinite",
						"getOrderLength()": "2347",
						"idToOrderIndex(uint256)": "2479",
						"isListed(uint256)": "2553",
						"onERC721Received(address,address,uint256,bytes)": "infinite",
						"orderOfId(uint256)": "6804",
						"orders(uint256)": "8986",
						"toUint256(bytes,uint256)": "infinite"
					},
					"internal": {
						"placeOrder(address,uint256,uint256)": "infinite",
						"removeListing(uint256)": "infinite"
					}
				},
				"methodIdentifiers": {
					"buy(uint256)": "d96a094a",
					"cancelOrder(uint256)": "514fcac7",
					"changePrice(uint256,uint256)": "b3de019c",
					"erc20()": "785e9e86",
					"erc721()": "bca6ce64",
					"getAllNFTs()": "e0391b09",
					"getMyNFTs()": "629cb2e4",
					"getOrderLength()": "9d4971b7",
					"idToOrderIndex(uint256)": "da694df0",
					"isListed(uint256)": "fcce4883",
					"onERC721Received(address,address,uint256,bytes)": "150b7a02",
					"orderOfId(uint256)": "394a9077",
					"orders(uint256)": "a85c38ef",
					"toUint256(bytes,uint256)": "b5cdf924"
				}
			},
			"storageLayout": {
				"storage": [
					{
						"astId": 247,
						"contract": "contracts/nft-market.sol:Market",
						"label": "erc20",
						"offset": 0,
						"slot": "0",
						"type": "t_contract(IERC20)89"
					},
					{
						"astId": 250,
						"contract": "contracts/nft-market.sol:Market",
						"label": "erc721",
						"offset": 0,
						"slot": "1",
						"type": "t_contract(IERC721)206"
					},
					{
						"astId": 265,
						"contract": "contracts/nft-market.sol:Market",
						"label": "orderOfId",
						"offset": 0,
						"slot": "2",
						"type": "t_mapping(t_uint256,t_struct(Order)260_storage)"
					},
					{
						"astId": 269,
						"contract": "contracts/nft-market.sol:Market",
						"label": "orders",
						"offset": 0,
						"slot": "3",
						"type": "t_array(t_struct(Order)260_storage)dyn_storage"
					},
					{
						"astId": 273,
						"contract": "contracts/nft-market.sol:Market",
						"label": "idToOrderIndex",
						"offset": 0,
						"slot": "4",
						"type": "t_mapping(t_uint256,t_uint256)"
					}
				],
				"types": {
					"t_address": {
						"encoding": "inplace",
						"label": "address",
						"numberOfBytes": "20"
					},
					"t_array(t_struct(Order)260_storage)dyn_storage": {
						"base": "t_struct(Order)260_storage",
						"encoding": "dynamic_array",
						"label": "struct Market.Order[]",
						"numberOfBytes": "32"
					},
					"t_contract(IERC20)89": {
						"encoding": "inplace",
						"label": "contract IERC20",
						"numberOfBytes": "20"
					},
					"t_contract(IERC721)206": {
						"encoding": "inplace",
						"label": "contract IERC721",
						"numberOfBytes": "20"
					},
					"t_mapping(t_uint256,t_struct(Order)260_storage)": {
						"encoding": "mapping",
						"key": "t_uint256",
						"label": "mapping(uint256 => struct Market.Order)",
						"numberOfBytes": "32",
						"value": "t_struct(Order)260_storage"
					},
					"t_mapping(t_uint256,t_uint256)": {
						"encoding": "mapping",
						"key": "t_uint256",
						"label": "mapping(uint256 => uint256)",
						"numberOfBytes": "32",
						"value": "t_uint256"
					},
					"t_struct(Order)260_storage": {
						"encoding": "inplace",
						"label": "struct Market.Order",
						"members": [
							{
								"astId": 255,
								"contract": "contracts/nft-market.sol:Market",
								"label": "seller",
								"offset": 0,
								"slot": "0",
								"type": "t_address"
							},
							{
								"astId": 257,
								"contract": "contracts/nft-market.sol:Market",
								"label": "tokenId",
								"offset": 0,
								"slot": "1",
								"type": "t_uint256"
							},
							{
								"astId": 259,
								"contract": "contracts/nft-market.sol:Market",
								"label": "price",
								"offset": 0,
								"slot": "2",
								"type": "t_uint256"
							}
						],
						"numberOfBytes": "96"
					},
					"t_uint256": {
						"encoding": "inplace",
						"label": "uint256",
						"numberOfBytes": "32"
					}
				}
			},
			"userdoc": {
				"kind": "user",
				"methods": {},
				"version": 1
			}
		}
	}
}